{
  "address": "0x386d661252e4bebab2fD9683538905e4eB0cd0DE",
  "abi": [
    {
      "inputs": [],
      "stateMutability": "nonpayable",
      "type": "constructor"
    },
    {
      "anonymous": false,
      "inputs": [
        {
          "indexed": true,
          "internalType": "address",
          "name": "owner",
          "type": "address"
        },
        {
          "indexed": true,
          "internalType": "address",
          "name": "approved",
          "type": "address"
        },
        {
          "indexed": true,
          "internalType": "uint256",
          "name": "tokenId",
          "type": "uint256"
        }
      ],
      "name": "Approval",
      "type": "event"
    },
    {
      "anonymous": false,
      "inputs": [
        {
          "indexed": true,
          "internalType": "address",
          "name": "owner",
          "type": "address"
        },
        {
          "indexed": true,
          "internalType": "address",
          "name": "operator",
          "type": "address"
        },
        {
          "indexed": false,
          "internalType": "bool",
          "name": "approved",
          "type": "bool"
        }
      ],
      "name": "ApprovalForAll",
      "type": "event"
    },
    {
      "anonymous": false,
      "inputs": [
        {
          "indexed": false,
          "internalType": "string",
          "name": "uri",
          "type": "string"
        }
      ],
      "name": "BaseTokenURIChanged",
      "type": "event"
    },
    {
      "anonymous": false,
      "inputs": [
        {
          "indexed": false,
          "internalType": "uint256",
          "name": "amount",
          "type": "uint256"
        }
      ],
      "name": "FeesWithdrawn",
      "type": "event"
    },
    {
      "anonymous": false,
      "inputs": [
        {
          "indexed": false,
          "internalType": "uint256",
          "name": "fee",
          "type": "uint256"
        }
      ],
      "name": "MintFeeChanged",
      "type": "event"
    },
    {
      "anonymous": false,
      "inputs": [
        {
          "indexed": false,
          "internalType": "address",
          "name": "set",
          "type": "address"
        }
      ],
      "name": "OnBurnChanged",
      "type": "event"
    },
    {
      "anonymous": false,
      "inputs": [
        {
          "indexed": false,
          "internalType": "address",
          "name": "set",
          "type": "address"
        }
      ],
      "name": "OnMintChanged",
      "type": "event"
    },
    {
      "anonymous": false,
      "inputs": [
        {
          "indexed": false,
          "internalType": "address",
          "name": "set",
          "type": "address"
        }
      ],
      "name": "OnTransferChanged",
      "type": "event"
    },
    {
      "anonymous": false,
      "inputs": [
        {
          "indexed": true,
          "internalType": "bytes32",
          "name": "role",
          "type": "bytes32"
        },
        {
          "indexed": true,
          "internalType": "bytes32",
          "name": "previousAdminRole",
          "type": "bytes32"
        },
        {
          "indexed": true,
          "internalType": "bytes32",
          "name": "newAdminRole",
          "type": "bytes32"
        }
      ],
      "name": "RoleAdminChanged",
      "type": "event"
    },
    {
      "anonymous": false,
      "inputs": [
        {
          "indexed": true,
          "internalType": "bytes32",
          "name": "role",
          "type": "bytes32"
        },
        {
          "indexed": true,
          "internalType": "address",
          "name": "account",
          "type": "address"
        },
        {
          "indexed": true,
          "internalType": "address",
          "name": "sender",
          "type": "address"
        }
      ],
      "name": "RoleGranted",
      "type": "event"
    },
    {
      "anonymous": false,
      "inputs": [
        {
          "indexed": true,
          "internalType": "bytes32",
          "name": "role",
          "type": "bytes32"
        },
        {
          "indexed": true,
          "internalType": "address",
          "name": "account",
          "type": "address"
        },
        {
          "indexed": true,
          "internalType": "address",
          "name": "sender",
          "type": "address"
        }
      ],
      "name": "RoleRevoked",
      "type": "event"
    },
    {
      "anonymous": false,
      "inputs": [
        {
          "indexed": true,
          "internalType": "address",
          "name": "from",
          "type": "address"
        },
        {
          "indexed": true,
          "internalType": "address",
          "name": "to",
          "type": "address"
        },
        {
          "indexed": true,
          "internalType": "uint256",
          "name": "tokenId",
          "type": "uint256"
        }
      ],
      "name": "Transfer",
      "type": "event"
    },
    {
      "anonymous": false,
      "inputs": [
        {
          "indexed": true,
          "internalType": "address",
          "name": "from",
          "type": "address"
        },
        {
          "indexed": true,
          "internalType": "address",
          "name": "to",
          "type": "address"
        },
        {
          "indexed": true,
          "internalType": "uint256",
          "name": "tokenId",
          "type": "uint256"
        },
        {
          "indexed": false,
          "internalType": "bytes",
          "name": "metaData",
          "type": "bytes"
        }
      ],
      "name": "TransferWithMetadata",
      "type": "event"
    },
    {
      "anonymous": false,
      "inputs": [
        {
          "indexed": true,
          "internalType": "address",
          "name": "user",
          "type": "address"
        },
        {
          "indexed": false,
          "internalType": "uint256[]",
          "name": "tokenIds",
          "type": "uint256[]"
        }
      ],
      "name": "WithdrawnBatch",
      "type": "event"
    },
    {
      "inputs": [],
      "name": "BATCH_LIMIT",
      "outputs": [
        {
          "internalType": "uint256",
          "name": "",
          "type": "uint256"
        }
      ],
      "stateMutability": "view",
      "type": "function"
    },
    {
      "inputs": [],
      "name": "DEFAULT_ADMIN_ROLE",
      "outputs": [
        {
          "internalType": "bytes32",
          "name": "",
          "type": "bytes32"
        }
      ],
      "stateMutability": "view",
      "type": "function"
    },
    {
      "inputs": [],
      "name": "DEPOSITOR_ROLE",
      "outputs": [
        {
          "internalType": "bytes32",
          "name": "",
          "type": "bytes32"
        }
      ],
      "stateMutability": "view",
      "type": "function"
    },
    {
      "inputs": [],
      "name": "MINTER_ROLE",
      "outputs": [
        {
          "internalType": "bytes32",
          "name": "",
          "type": "bytes32"
        }
      ],
      "stateMutability": "view",
      "type": "function"
    },
    {
      "inputs": [],
      "name": "MINT_TYPEHASH",
      "outputs": [
        {
          "internalType": "bytes32",
          "name": "",
          "type": "bytes32"
        }
      ],
      "stateMutability": "view",
      "type": "function"
    },
    {
      "inputs": [],
      "name": "WITHDRAW_ROLE",
      "outputs": [
        {
          "internalType": "bytes32",
          "name": "",
          "type": "bytes32"
        }
      ],
      "stateMutability": "view",
      "type": "function"
    },
    {
      "inputs": [
        {
          "internalType": "address",
          "name": "to",
          "type": "address"
        },
        {
          "internalType": "uint256",
          "name": "tokenId",
          "type": "uint256"
        }
      ],
      "name": "approve",
      "outputs": [],
      "stateMutability": "nonpayable",
      "type": "function"
    },
    {
      "inputs": [
        {
          "internalType": "address",
          "name": "owner",
          "type": "address"
        }
      ],
      "name": "balanceOf",
      "outputs": [
        {
          "internalType": "uint256",
          "name": "",
          "type": "uint256"
        }
      ],
      "stateMutability": "view",
      "type": "function"
    },
    {
      "inputs": [],
      "name": "baseTokenURI",
      "outputs": [
        {
          "internalType": "string",
          "name": "",
          "type": "string"
        }
      ],
      "stateMutability": "view",
      "type": "function"
    },
    {
      "inputs": [
        {
          "internalType": "uint256",
          "name": "tokenId",
          "type": "uint256"
        }
      ],
      "name": "burn",
      "outputs": [],
      "stateMutability": "nonpayable",
      "type": "function"
    },
    {
      "inputs": [
        {
          "internalType": "address",
          "name": "user",
          "type": "address"
        },
        {
          "internalType": "bytes",
          "name": "depositData",
          "type": "bytes"
        }
      ],
      "name": "deposit",
      "outputs": [],
      "stateMutability": "nonpayable",
      "type": "function"
    },
    {
      "inputs": [
        {
          "internalType": "uint256",
          "name": "",
          "type": "uint256"
        }
      ],
      "name": "encodeTokenMetadata",
      "outputs": [
        {
          "internalType": "bytes",
          "name": "",
          "type": "bytes"
        }
      ],
      "stateMutability": "view",
      "type": "function"
    },
    {
      "inputs": [
        {
          "internalType": "uint256",
          "name": "tokenId",
          "type": "uint256"
        }
      ],
      "name": "getApproved",
      "outputs": [
        {
          "internalType": "address",
          "name": "",
          "type": "address"
        }
      ],
      "stateMutability": "view",
      "type": "function"
    },
    {
      "inputs": [
        {
          "internalType": "bytes32",
          "name": "role",
          "type": "bytes32"
        }
      ],
      "name": "getRoleAdmin",
      "outputs": [
        {
          "internalType": "bytes32",
          "name": "",
          "type": "bytes32"
        }
      ],
      "stateMutability": "view",
      "type": "function"
    },
    {
      "inputs": [
        {
          "internalType": "bytes32",
          "name": "role",
          "type": "bytes32"
        },
        {
          "internalType": "address",
          "name": "account",
          "type": "address"
        }
      ],
      "name": "grantRole",
      "outputs": [],
      "stateMutability": "nonpayable",
      "type": "function"
    },
    {
      "inputs": [
        {
          "internalType": "bytes32",
          "name": "role",
          "type": "bytes32"
        },
        {
          "internalType": "address",
          "name": "account",
          "type": "address"
        }
      ],
      "name": "hasRole",
      "outputs": [
        {
          "internalType": "bool",
          "name": "",
          "type": "bool"
        }
      ],
      "stateMutability": "view",
      "type": "function"
    },
    {
      "inputs": [
        {
          "internalType": "address",
          "name": "owner",
          "type": "address"
        },
        {
          "internalType": "address",
          "name": "operator",
          "type": "address"
        }
      ],
      "name": "isApprovedForAll",
      "outputs": [
        {
          "internalType": "bool",
          "name": "",
          "type": "bool"
        }
      ],
      "stateMutability": "view",
      "type": "function"
    },
    {
      "inputs": [
        {
          "internalType": "uint256",
          "name": "tokenId",
          "type": "uint256"
        },
        {
          "internalType": "uint256",
          "name": "extra",
          "type": "uint256"
        },
        {
          "internalType": "uint8",
          "name": "v",
          "type": "uint8"
        },
        {
          "internalType": "bytes32",
          "name": "r",
          "type": "bytes32"
        },
        {
          "internalType": "bytes32",
          "name": "s",
          "type": "bytes32"
        }
      ],
      "name": "mint",
      "outputs": [],
      "stateMutability": "payable",
      "type": "function"
    },
    {
      "inputs": [],
      "name": "mintFee",
      "outputs": [
        {
          "internalType": "uint256",
          "name": "",
          "type": "uint256"
        }
      ],
      "stateMutability": "view",
      "type": "function"
    },
    {
      "inputs": [
        {
          "internalType": "address",
          "name": "to",
          "type": "address"
        },
        {
          "internalType": "uint256",
          "name": "tokenId",
          "type": "uint256"
        },
        {
          "internalType": "uint256",
          "name": "extra",
          "type": "uint256"
        },
        {
          "internalType": "uint8",
          "name": "v",
          "type": "uint8"
        },
        {
          "internalType": "bytes32",
          "name": "r",
          "type": "bytes32"
        },
        {
          "internalType": "bytes32",
          "name": "s",
          "type": "bytes32"
        }
      ],
      "name": "mintTo",
      "outputs": [],
      "stateMutability": "payable",
      "type": "function"
    },
    {
      "inputs": [],
      "name": "name",
      "outputs": [
        {
          "internalType": "string",
          "name": "",
          "type": "string"
        }
      ],
      "stateMutability": "view",
      "type": "function"
    },
    {
      "inputs": [],
      "name": "onBurn",
      "outputs": [
        {
          "internalType": "address",
          "name": "",
          "type": "address"
        }
      ],
      "stateMutability": "view",
      "type": "function"
    },
    {
      "inputs": [],
      "name": "onMint",
      "outputs": [
        {
          "internalType": "address",
          "name": "",
          "type": "address"
        }
      ],
      "stateMutability": "view",
      "type": "function"
    },
    {
      "inputs": [],
      "name": "onTransfer",
      "outputs": [
        {
          "internalType": "address",
          "name": "",
          "type": "address"
        }
      ],
      "stateMutability": "view",
      "type": "function"
    },
    {
      "inputs": [
        {
          "internalType": "uint256",
          "name": "tokenId",
          "type": "uint256"
        }
      ],
      "name": "ownerOf",
      "outputs": [
        {
          "internalType": "address",
          "name": "",
          "type": "address"
        }
      ],
      "stateMutability": "view",
      "type": "function"
    },
    {
      "inputs": [
        {
          "internalType": "bytes32",
          "name": "role",
          "type": "bytes32"
        },
        {
          "internalType": "address",
          "name": "account",
          "type": "address"
        }
      ],
      "name": "renounceRole",
      "outputs": [],
      "stateMutability": "nonpayable",
      "type": "function"
    },
    {
      "inputs": [
        {
          "internalType": "address",
          "name": "_token",
          "type": "address"
        }
      ],
      "name": "rescue",
      "outputs": [],
      "stateMutability": "nonpayable",
      "type": "function"
    },
    {
      "inputs": [
        {
          "internalType": "bytes32",
          "name": "role",
          "type": "bytes32"
        },
        {
          "internalType": "address",
          "name": "account",
          "type": "address"
        }
      ],
      "name": "revokeRole",
      "outputs": [],
      "stateMutability": "nonpayable",
      "type": "function"
    },
    {
      "inputs": [
        {
          "internalType": "address",
          "name": "from",
          "type": "address"
        },
        {
          "internalType": "address",
          "name": "to",
          "type": "address"
        },
        {
          "internalType": "uint256",
          "name": "tokenId",
          "type": "uint256"
        }
      ],
      "name": "safeTransferFrom",
      "outputs": [],
      "stateMutability": "nonpayable",
      "type": "function"
    },
    {
      "inputs": [
        {
          "internalType": "address",
          "name": "from",
          "type": "address"
        },
        {
          "internalType": "address",
          "name": "to",
          "type": "address"
        },
        {
          "internalType": "uint256",
          "name": "tokenId",
          "type": "uint256"
        },
        {
          "internalType": "bytes",
          "name": "_data",
          "type": "bytes"
        }
      ],
      "name": "safeTransferFrom",
      "outputs": [],
      "stateMutability": "nonpayable",
      "type": "function"
    },
    {
      "inputs": [
        {
          "internalType": "address",
          "name": "operator",
          "type": "address"
        },
        {
          "internalType": "bool",
          "name": "approved",
          "type": "bool"
        }
      ],
      "name": "setApprovalForAll",
      "outputs": [],
      "stateMutability": "nonpayable",
      "type": "function"
    },
    {
      "inputs": [
        {
          "internalType": "string",
          "name": "uri",
          "type": "string"
        }
      ],
      "name": "setBaseTokenURI",
      "outputs": [],
      "stateMutability": "nonpayable",
      "type": "function"
    },
    {
      "inputs": [
        {
          "internalType": "uint256",
          "name": "fee",
          "type": "uint256"
        }
      ],
      "name": "setMintFee",
      "outputs": [],
      "stateMutability": "nonpayable",
      "type": "function"
    },
    {
      "inputs": [
        {
          "internalType": "address",
          "name": "set",
          "type": "address"
        }
      ],
      "name": "setOnBurn",
      "outputs": [],
      "stateMutability": "nonpayable",
      "type": "function"
    },
    {
      "inputs": [
        {
          "internalType": "address",
          "name": "set",
          "type": "address"
        }
      ],
      "name": "setOnMint",
      "outputs": [],
      "stateMutability": "nonpayable",
      "type": "function"
    },
    {
      "inputs": [
        {
          "internalType": "address",
          "name": "set",
          "type": "address"
        }
      ],
      "name": "setOnTransfer",
      "outputs": [],
      "stateMutability": "nonpayable",
      "type": "function"
    },
    {
      "inputs": [
        {
          "internalType": "bytes4",
          "name": "interfaceId",
          "type": "bytes4"
        }
      ],
      "name": "supportsInterface",
      "outputs": [
        {
          "internalType": "bool",
          "name": "",
          "type": "bool"
        }
      ],
      "stateMutability": "view",
      "type": "function"
    },
    {
      "inputs": [],
      "name": "symbol",
      "outputs": [
        {
          "internalType": "string",
          "name": "",
          "type": "string"
        }
      ],
      "stateMutability": "view",
      "type": "function"
    },
    {
      "inputs": [
        {
          "internalType": "uint256",
          "name": "index",
          "type": "uint256"
        }
      ],
      "name": "tokenByIndex",
      "outputs": [
        {
          "internalType": "uint256",
          "name": "",
          "type": "uint256"
        }
      ],
      "stateMutability": "view",
      "type": "function"
    },
    {
      "inputs": [
        {
          "internalType": "address",
          "name": "owner",
          "type": "address"
        },
        {
          "internalType": "uint256",
          "name": "index",
          "type": "uint256"
        }
      ],
      "name": "tokenOfOwnerByIndex",
      "outputs": [
        {
          "internalType": "uint256",
          "name": "",
          "type": "uint256"
        }
      ],
      "stateMutability": "view",
      "type": "function"
    },
    {
      "inputs": [
        {
          "internalType": "uint256",
          "name": "tokenId",
          "type": "uint256"
        }
      ],
      "name": "tokenURI",
      "outputs": [
        {
          "internalType": "string",
          "name": "",
          "type": "string"
        }
      ],
      "stateMutability": "view",
      "type": "function"
    },
    {
      "inputs": [],
      "name": "totalSupply",
      "outputs": [
        {
          "internalType": "uint256",
          "name": "",
          "type": "uint256"
        }
      ],
      "stateMutability": "view",
      "type": "function"
    },
    {
      "inputs": [
        {
          "internalType": "address",
          "name": "from",
          "type": "address"
        },
        {
          "internalType": "address",
          "name": "to",
          "type": "address"
        },
        {
          "internalType": "uint256",
          "name": "tokenId",
          "type": "uint256"
        }
      ],
      "name": "transferFrom",
      "outputs": [],
      "stateMutability": "nonpayable",
      "type": "function"
    },
    {
      "inputs": [
        {
          "internalType": "uint256",
          "name": "tokenId",
          "type": "uint256"
        }
      ],
      "name": "withdraw",
      "outputs": [],
      "stateMutability": "nonpayable",
      "type": "function"
    },
    {
      "inputs": [
        {
          "internalType": "uint256[]",
          "name": "tokenIds",
          "type": "uint256[]"
        }
      ],
      "name": "withdrawBatch",
      "outputs": [],
      "stateMutability": "nonpayable",
      "type": "function"
    },
    {
      "inputs": [],
      "name": "withdrawFees",
      "outputs": [],
      "stateMutability": "nonpayable",
      "type": "function"
    },
    {
      "inputs": [
        {
          "internalType": "uint256",
          "name": "tokenId",
          "type": "uint256"
        }
      ],
      "name": "withdrawWithMetadata",
      "outputs": [],
      "stateMutability": "nonpayable",
      "type": "function"
    },
    {
      "inputs": [
        {
          "internalType": "uint256",
          "name": "",
          "type": "uint256"
        }
      ],
      "name": "withdrawnTokens",
      "outputs": [
        {
          "internalType": "bool",
          "name": "",
          "type": "bool"
        }
      ],
      "stateMutability": "view",
      "type": "function"
    }
  ],
  "transactionHash": "0x98f585da9f6790ef154499644ddadf620c23f7af26a2c827a3cea69abbdf43a9",
  "args": [],
  "solcInputHash": "26f6a656a41aefddab40d92ccdd59abd",
  "bytecode": "0x6101206040523480156200001257600080fd5b5060405180604001604052806011815260200170109bdd59da1d151a194b9d1bdc08139195607a1b815250604051806040016040528060018152602001603160f81b81525060405180604001604052806011815260200170109bdd59da1d151a194b9d1bdc08139195607a1b8152506040518060400160405280600381526020016210951560ea1b8152508160019080519060200190620000b592919062000258565b508051620000cb90600290602084019062000258565b5050825160208085019190912083519184019190912060c082905260e08190524660a0529091507f8b73c3c69bb8fe3d512ecc4cf759cc79239f7b179b0ffacaa9a75d522b39400f6200012081848462000155565b6080526101005250620001449250600091506200013e905062000191565b62000195565b662386f26fc10000600c5562000367565b6000838383463060405160200162000172959493929190620002fe565b6040516020818303038152906040528051906020012090509392505050565b3390565b620001a18282620001a5565b5050565b620001b182826200022f565b620001a1576000828152602081815260408083206001600160a01b03851684529091529020805460ff19166001179055620001eb62000191565b6001600160a01b0316816001600160a01b0316837f2f8788117e7eff1d82e926ec794901d17c78024a50270940304540a733656f0d60405160405180910390a45050565b6000918252602082815260408084206001600160a01b0393909316845291905290205460ff1690565b82805462000266906200032a565b90600052602060002090601f0160209004810192826200028a5760008555620002d5565b82601f10620002a557805160ff1916838001178555620002d5565b82800160010185558215620002d5579182015b82811115620002d5578251825591602001919060010190620002b8565b50620002e3929150620002e7565b5090565b5b80821115620002e35760008155600101620002e8565b9485526020850193909352604084019190915260608301526001600160a01b0316608082015260a00190565b6002810460018216806200033f57607f821691505b602082108114156200036157634e487b7160e01b600052602260045260246000fd5b50919050565b60805160a05160c05160e05161010051613f72620003ac600039600061267a015260006126bc0152600061269b01526000612628015260006126510152613f726000f3fe6080604052600436106103135760003560e01c806370a082311161019a578063b28a2341116100e1578063d547741f1161008a578063e985e9c511610064578063e985e9c514610843578063eddd0d9c14610863578063f76fc35e1461088357610313565b8063d547741f146107f9578063d547cfb714610819578063e02023a11461082e57610313565b8063cf2c52cb116100bb578063cf2c52cb146107a4578063d32239ed146107c4578063d5391393146107e457610313565b8063b28a23411461074f578063b88d4fde14610764578063c87b56dd1461078457610313565b806395d89b4111610143578063a22cb4651161011d578063a22cb465146106fa578063a3b0b5a31461071a578063a5e584dc1461072f57610313565b806395d89b41146106b05780639c8d4156146106c5578063a217fddf146106e557610313565b80638bbd3601116101745780638bbd36011461066657806391d148541461067b5780639559c0bd1461069b57610313565b806370a08231146106135780637fb9a06314610633578063839006f21461064657610313565b80632cdbfcd51161025e57806342842e0e116102075780634f6ccce7116101e15780634f6ccce7146105be5780635472ebc6146105de5780636352211e146105f357610313565b806342842e0e1461056957806342966c6814610589578063476343ee146105a957610313565b80632f745c59116102385780632f745c591461050957806330176e131461052957806336568abe1461054957610313565b80632cdbfcd5146104a95780632e1a7d4d146104c95780632f2ff15d146104e957610313565b8063106fba10116102c057806318160ddd1161029a57806318160ddd1461045457806323b872dd14610469578063248a9ca31461048957610313565b8063106fba10146103ff57806313966db5146104125780631653c39a1461043457610313565b8063081812fc116102f1578063081812fc14610390578063095ea7b3146103bd578063105a6b09146103df57610313565b806301ffc9a71461031857806306fdde031461034e57806307a974fc14610370575b600080fd5b34801561032457600080fd5b50610338610333366004612ed0565b610898565b6040516103459190613201565b60405180910390f35b34801561035a57600080fd5b506103636108ab565b6040516103459190613283565b34801561037c57600080fd5b5061033861038b366004612e96565b61093e565b34801561039c57600080fd5b506103b06103ab366004612e96565b610953565b60405161034591906130f8565b3480156103c957600080fd5b506103dd6103d8366004612ce4565b61099f565b005b3480156103eb57600080fd5b506103dd6103fa366004612b33565b610a37565b6103dd61040d366004612d0d565b610ace565b34801561041e57600080fd5b50610427610ae4565b604051610345919061320c565b34801561044057600080fd5b5061036361044f366004612e96565b610aea565b34801561046057600080fd5b50610427610af0565b34801561047557600080fd5b506103dd610484366004612b7f565b610af6565b34801561049557600080fd5b506104276104a4366004612e96565b610b2e565b3480156104b557600080fd5b506103dd6104c4366004612b33565b610b43565b3480156104d557600080fd5b506103dd6104e4366004612e96565b610bcf565b3480156104f557600080fd5b506103dd610504366004612eae565b610c34565b34801561051557600080fd5b50610427610524366004612ce4565b610c72565b34801561053557600080fd5b506103dd610544366004612f72565b610cc4565b34801561055557600080fd5b506103dd610564366004612eae565b610d37565b34801561057557600080fd5b506103dd610584366004612b7f565b610d79565b34801561059557600080fd5b506103dd6105a4366004612e96565b610d94565b3480156105b557600080fd5b506103dd610e51565b3480156105ca57600080fd5b506104276105d9366004612e96565b610f0a565b3480156105ea57600080fd5b506103b0610f65565b3480156105ff57600080fd5b506103b061060e366004612e96565b610f74565b34801561061f57600080fd5b5061042761062e366004612b33565b610fa9565b6103dd610641366004612fca565b610fed565b34801561065257600080fd5b506103dd610661366004612b33565b611009565b34801561067257600080fd5b506103b061116d565b34801561068757600080fd5b50610338610696366004612eae565b61117c565b3480156106a757600080fd5b506104276111a5565b3480156106bc57600080fd5b506103636111aa565b3480156106d157600080fd5b506103dd6106e0366004612d64565b6111b9565b3480156106f157600080fd5b506104276112f9565b34801561070657600080fd5b506103dd610715366004612c5d565b6112fe565b34801561072657600080fd5b506104276113cc565b34801561073b57600080fd5b506103dd61074a366004612e96565b6113f0565b34801561075b57600080fd5b506103b061151c565b34801561077057600080fd5b506103dd61077f366004612bba565b61152b565b34801561079057600080fd5b5061036361079f366004612e96565b61156a565b3480156107b057600080fd5b506103dd6107bf366004612c93565b6115ed565b3480156107d057600080fd5b506103dd6107df366004612b33565b611728565b3480156107f057600080fd5b506104276117b4565b34801561080557600080fd5b506103dd610814366004612eae565b6117d8565b34801561082557600080fd5b50610363611800565b34801561083a57600080fd5b5061042761188e565b34801561084f57600080fd5b5061033861085e366004612b4d565b6118b2565b34801561086f57600080fd5b506103dd61087e366004612e96565b6118e0565b34801561088f57600080fd5b5061042761193e565b60006108a382611962565b90505b919050565b6060600180546108ba90613e36565b80601f01602080910402602001604051908101604052809291908181526020018280546108e690613e36565b80156109335780601f1061090857610100808354040283529160200191610933565b820191906000526020600020905b81548152906001019060200180831161091657829003601f168201915b505050505090505b90565b60106020526000908152604090205460ff1681565b600061095e826119b8565b6109835760405162461bcd60e51b815260040161097a9061396f565b60405180910390fd5b506000908152600560205260409020546001600160a01b031690565b60006109aa82610f74565b9050806001600160a01b0316836001600160a01b031614156109de5760405162461bcd60e51b815260040161097a90613a86565b806001600160a01b03166109f06119d5565b6001600160a01b03161480610a0c5750610a0c8161085e6119d5565b610a285760405162461bcd60e51b815260040161097a9061370c565b610a3283836119d9565b505050565b610a4460006106966119d5565b610a605760405162461bcd60e51b815260040161097a90613b40565b600e80547fffffffffffffffffffffffff0000000000000000000000000000000000000000166001600160a01b0383161790556040517fea5be56a0975e1b7d5383c503a12b55a9d2cf6c7700cdc1444c817254bbaa98590610ac39083906130f8565b60405180910390a150565b610adc868686868686611a5f565b505050505050565b600c5481565b50606090565b60095490565b610b07610b016119d5565b82611c21565b610b235760405162461bcd60e51b815260040161097a90613b9d565b610a32838383611ca6565b60009081526020819052604090206001015490565b610b5060006106966119d5565b610b6c5760405162461bcd60e51b815260040161097a90613b40565b600f80547fffffffffffffffffffffffff0000000000000000000000000000000000000000166001600160a01b0383161790556040517f0d14d5944ad83cbd3a426441f12bdd92bf2b8a51172a2a6b2be9f76baa2e410c90610ac39083906130f8565b610bd881610f74565b6001600160a01b0316610be96119d5565b6001600160a01b031614610c0f5760405162461bcd60e51b815260040161097a906132fc565b6000818152601060205260409020805460ff19166001179055610c3181611deb565b50565b610c48610c4083610b2e565b6106966119d5565b610c645760405162461bcd60e51b815260040161097a90613359565b610c6e8282611eaa565b5050565b6000610c7d83610fa9565b8210610c9b5760405162461bcd60e51b815260040161097a90613413565b506001600160a01b03919091166000908152600760209081526040808320938352929052205490565b610cd160006106966119d5565b610ced5760405162461bcd60e51b815260040161097a90613b40565b610cf9600b8383612a2b565b507f228a3ac0675af69daeaaa5b8d369fe2faae665e7f340f0b78ccbb84e17b4f6948282604051610d2b929190613296565b60405180910390a15050565b610d3f6119d5565b6001600160a01b0316816001600160a01b031614610d6f5760405162461bcd60e51b815260040161097a90613d11565b610c6e8282611f2f565b610a328383836040518060200160405280600081525061152b565b610d9f610b016119d5565b610dbb5760405162461bcd60e51b815260040161097a90613c57565b600e546001600160a01b031615610e4857600e546040517f0513fc8b0000000000000000000000000000000000000000000000000000000081526001600160a01b0390911690630513fc8b90610e1590849060040161320c565b600060405180830381600087803b158015610e2f57600080fd5b505af1158015610e43573d6000803e3d6000fd5b505050505b610c3181611deb565b610e7d7f5d8e12c39142ff96d79d04d15d1ba1269e4fe57bb9d26f43523628b34ba108ec6106966119d5565b610e995760405162461bcd60e51b815260040161097a90613912565b47610ea26119d5565b6001600160a01b03166108fc829081150290604051600060405180830381858888f19350505050158015610eda573d6000803e3d6000fd5b507f9800e6f57aeb4360eaa72295a820a4293e1e66fbfcabcd8874ae141304a76deb81604051610ac3919061320c565b6000610f14610af0565b8210610f325760405162461bcd60e51b815260040161097a90613bfa565b60098281548110610f5357634e487b7160e01b600052603260045260246000fd5b90600052602060002001549050919050565b600f546001600160a01b031681565b6000818152600360205260408120546001600160a01b0316806108a35760405162461bcd60e51b815260040161097a90613823565b60006001600160a01b038216610fd15760405162461bcd60e51b815260040161097a90613769565b506001600160a01b031660009081526004602052604090205490565b611002610ff86119d5565b8686868686611a5f565b5050505050565b6110357f5d8e12c39142ff96d79d04d15d1ba1269e4fe57bb9d26f43523628b34ba108ec6106966119d5565b6110515760405162461bcd60e51b815260040161097a90613912565b806001600160a01b03811663a9059cbb6110696119d5565b6040517f70a082310000000000000000000000000000000000000000000000000000000081526001600160a01b038516906370a08231906110ae9030906004016130f8565b60206040518083038186803b1580156110c657600080fd5b505afa1580156110da573d6000803e3d6000fd5b505050506040513d601f19601f820116820180604052508101906110fe9190612fb2565b6040518363ffffffff1660e01b815260040161111b929190613195565b602060405180830381600087803b15801561113557600080fd5b505af1158015611149573d6000803e3d6000fd5b505050506040513d601f19601f82011682018060405250810190610a329190612e7a565b600e546001600160a01b031681565b6000918252602082815260408084206001600160a01b0393909316845291905290205460ff1690565b601481565b6060600280546108ba90613e36565b8060148111156111db5760405162461bcd60e51b815260040161097a90613cb4565b60005b818110156112a957600084848381811061120857634e487b7160e01b600052603260045260246000fd5b90506020020135905061121a81610f74565b6001600160a01b031661122b6119d5565b6001600160a01b03161481604051602001611246919061306b565b604051602081830303815290604052906112735760405162461bcd60e51b815260040161097a9190613283565b506000818152601060205260409020805460ff1916600117905561129681611deb565b50806112a181613e71565b9150506111de565b506112b26119d5565b6001600160a01b03167ff871896b17e9cb7a64941c62c188a4f5c621b86800e3d15452ece01ce56073df84846040516112ec9291906131ae565b60405180910390a2505050565b600081565b6113066119d5565b6001600160a01b0316826001600160a01b031614156113375760405162461bcd60e51b815260040161097a90613561565b80600660006113446119d5565b6001600160a01b03908116825260208083019390935260409182016000908120918716808252919093529120805460ff1916921515929092179091556113886119d5565b6001600160a01b03167f17307eab39ab6107e8899845ad3d59bd9653f200f220920489ca2b5937696c31836040516113c09190613201565b60405180910390a35050565b7f8f4f2da22e8ac8f11e15f9fc141cddbb5deea8800186560abb6e68c5496619a981565b6113f981610f74565b6001600160a01b031661140a6119d5565b6001600160a01b0316146114305760405162461bcd60e51b815260040161097a906132fc565b6000818152601060205260408120805460ff19166001179055819061145482610f74565b6001600160a01b03167ff94915c6d1fd521cee85359239227480c7e8776d7caf1fc3bacad5c269b66a14306001600160a01b0316631653c39a866040518263ffffffff1660e01b81526004016114aa919061320c565b60006040518083038186803b1580156114c257600080fd5b505afa1580156114d6573d6000803e3d6000fd5b505050506040513d6000823e601f3d908101601f191682016040526114fe9190810190612f08565b60405161150b9190613283565b60405180910390a4610c3181611deb565b600d546001600160a01b031681565b61153c6115366119d5565b83611c21565b6115585760405162461bcd60e51b815260040161097a90613b9d565b61156484848484611fb2565b50505050565b6060611575826119b8565b6115915760405162461bcd60e51b815260040161097a90613a29565b600061159b611fe5565b905060008151116115bb57604051806020016040528060008152506115e6565b806115c584611ff4565b6040516020016115d692919061303c565b6040516020818303038152906040525b9392505050565b6116197f8f4f2da22e8ac8f11e15f9fc141cddbb5deea8800186560abb6e68c5496619a96106966119d5565b6116355760405162461bcd60e51b815260040161097a90613652565b602081141561167457600061164c82840184612e96565b6000818152601060205260409020805460ff19169055905061166e8482612143565b50610a32565b600061168282840184612dd3565b805190915060005b81811015610adc576000601060008584815181106116b857634e487b7160e01b600052603260045260246000fd5b6020026020010151815260200190815260200160002060006101000a81548160ff0219169083151502179055506117168684838151811061170957634e487b7160e01b600052603260045260246000fd5b6020026020010151612143565b8061172081613e71565b91505061168a565b61173560006106966119d5565b6117515760405162461bcd60e51b815260040161097a90613b40565b600d80547fffffffffffffffffffffffff0000000000000000000000000000000000000000166001600160a01b0383161790556040517fffdf1265f75c65042a9ce1492cc564231dfb38876d9f29949e9ff441d00edcb590610ac39083906130f8565b7f9f2df0fed2c77648de5860a4cc508cd0818c85b8b8a1ab4ceeef8d981c8956a681565b6117e4610c4083610b2e565b610d6f5760405162461bcd60e51b815260040161097a906136af565b600b805461180d90613e36565b80601f016020809104026020016040519081016040528092919081815260200182805461183990613e36565b80156118865780601f1061185b57610100808354040283529160200191611886565b820191906000526020600020905b81548152906001019060200180831161186957829003601f168201915b505050505081565b7f5d8e12c39142ff96d79d04d15d1ba1269e4fe57bb9d26f43523628b34ba108ec81565b6001600160a01b03918216600090815260066020908152604080832093909416825291909152205460ff1690565b6118ed60006106966119d5565b6119095760405162461bcd60e51b815260040161097a90613b40565b600c8190556040517fe427e272b122e738fd867ac5defcedb2bc9362341166a49d793d8b230f75670c90610ac390839061320c565b7fc58b61fec2cd4de12178326c644460af93b446ff95aa30d194dd77fc93f321ff81565b60007fffffffff0000000000000000000000000000000000000000000000000000000082167f780e9d630000000000000000000000000000000000000000000000000000000014806108a357506108a38261223a565b6000908152600360205260409020546001600160a01b0316151590565b3390565b600081815260056020526040902080547fffffffffffffffffffffffff0000000000000000000000000000000000000000166001600160a01b0384169081179091558190611a2682610f74565b6001600160a01b03167f8c5be1e5ebec7d5bd14f71427d1e84f3dd0314c0f7b2291e5b200ac8c7c3b92560405160405180910390a45050565b60008581526010602052604090205460ff1615611a8e5760405162461bcd60e51b815260040161097a906137c6565b6000611ae57fc58b61fec2cd4de12178326c644460af93b446ff95aa30d194dd77fc93f321ff888888604051602001611aca9493929190613215565b604051602081830303815290604052805190602001206122dc565b90506000611af5828686866122ef565b9050611b217f9f2df0fed2c77648de5860a4cc508cd0818c85b8b8a1ab4ceeef8d981c8956a68261117c565b611b3d5760405162461bcd60e51b815260040161097a90613ae3565b611b697f9f2df0fed2c77648de5860a4cc508cd0818c85b8b8a1ab4ceeef8d981c8956a66106966119d5565b611b8e57600c543414611b8e5760405162461bcd60e51b815260040161097a906133b6565b600d546001600160a01b031615611c0d57600d546001600160a01b0316633f812ccc611bb86119d5565b8a8a8a6040518563ffffffff1660e01b8152600401611bda949392919061316c565b600060405180830381600087803b158015611bf457600080fd5b505af1158015611c08573d6000803e3d6000fd5b505050505b611c178888612143565b5050505050505050565b6000611c2c826119b8565b611c485760405162461bcd60e51b815260040161097a906135f5565b6000611c5383610f74565b9050806001600160a01b0316846001600160a01b03161480611c8e5750836001600160a01b0316611c8384610953565b6001600160a01b0316145b80611c9e5750611c9e81856118b2565b949350505050565b826001600160a01b0316611cb982610f74565b6001600160a01b031614611cdf5760405162461bcd60e51b815260040161097a906139cc565b6001600160a01b038216611d055760405162461bcd60e51b815260040161097a90613504565b611d108383836123e5565b611d1b6000826119d9565b6001600160a01b0383166000908152600460205260408120805460019290611d44908490613df3565b90915550506001600160a01b0382166000908152600460205260408120805460019290611d72908490613dc7565b909155505060008181526003602052604080822080547fffffffffffffffffffffffff0000000000000000000000000000000000000000166001600160a01b0386811691821790925591518493918716917fddf252ad1be2c89b69c2b068fc378daa952ba7f163c4a11628f55a4df523b3ef91a4505050565b6000611df682610f74565b9050611e04816000846123e5565b611e0f6000836119d9565b6001600160a01b0381166000908152600460205260408120805460019290611e38908490613df3565b909155505060008281526003602052604080822080547fffffffffffffffffffffffff0000000000000000000000000000000000000000169055518391906001600160a01b038416907fddf252ad1be2c89b69c2b068fc378daa952ba7f163c4a11628f55a4df523b3ef908390a45050565b611eb4828261117c565b610c6e576000828152602081815260408083206001600160a01b03851684529091529020805460ff19166001179055611eeb6119d5565b6001600160a01b0316816001600160a01b0316837f2f8788117e7eff1d82e926ec794901d17c78024a50270940304540a733656f0d60405160405180910390a45050565b611f39828261117c565b15610c6e576000828152602081815260408083206001600160a01b03851684529091529020805460ff19169055611f6e6119d5565b6001600160a01b0316816001600160a01b0316837ff6391f5c32d9c69d2a47ea670b442974b53935d1edc7fd64eb21e047a839171b60405160405180910390a45050565b611fbd848484611ca6565b611fc984848484612485565b6115645760405162461bcd60e51b815260040161097a90613470565b6060600b80546108ba90613e36565b606081612035575060408051808201909152600181527f300000000000000000000000000000000000000000000000000000000000000060208201526108a6565b8160005b811561205f578061204981613e71565b91506120589050600a83613ddf565b9150612039565b60008167ffffffffffffffff81111561208857634e487b7160e01b600052604160045260246000fd5b6040519080825280601f01601f1916602001820160405280156120b2576020820181803683370190505b5090505b8415611c9e576120c7600183613df3565b91506120d4600a86613eaa565b6120df906030613dc7565b60f81b81838151811061210257634e487b7160e01b600052603260045260246000fd5b60200101907effffffffffffffffffffffffffffffffffffffffffffffffffffffffffffff1916908160001a90535061213c600a86613ddf565b94506120b6565b6001600160a01b0382166121695760405162461bcd60e51b815260040161097a906138dd565b612172816119b8565b1561218f5760405162461bcd60e51b815260040161097a906134cd565b61219b600083836123e5565b6001600160a01b03821660009081526004602052604081208054600192906121c4908490613dc7565b909155505060008181526003602052604080822080547fffffffffffffffffffffffff0000000000000000000000000000000000000000166001600160a01b03861690811790915590518392907fddf252ad1be2c89b69c2b068fc378daa952ba7f163c4a11628f55a4df523b3ef908290a45050565b60007fffffffff0000000000000000000000000000000000000000000000000000000082167f80ac58cd0000000000000000000000000000000000000000000000000000000014806122cd57507fffffffff0000000000000000000000000000000000000000000000000000000082167f5b5e139f00000000000000000000000000000000000000000000000000000000145b806108a357506108a3826125ce565b60006108a36122e9612624565b836126e7565b60007f7fffffffffffffffffffffffffffffff5d576e7357a4501ddfe92f46681b20a08211156123315760405162461bcd60e51b815260040161097a90613598565b8360ff16601b148061234657508360ff16601c145b6123625760405162461bcd60e51b815260040161097a90613880565b6000600186868686604051600081526020016040526040516123879493929190613265565b6020604051602081039080840390855afa1580156123a9573d6000803e3d6000fd5b5050604051601f1901519150506001600160a01b0381166123dc5760405162461bcd60e51b815260040161097a906132c5565b95945050505050565b6123f083838361271a565b600f546001600160a01b031615610a3257600f546040517f4a3931490000000000000000000000000000000000000000000000000000000081526001600160a01b0390911690634a3931499061244e9086908690869060040161310c565b600060405180830381600087803b15801561246857600080fd5b505af115801561247c573d6000803e3d6000fd5b50505050505050565b6000612499846001600160a01b03166127a3565b156125c657836001600160a01b031663150b7a026124b56119d5565b8786866040518563ffffffff1660e01b81526004016124d79493929190613130565b602060405180830381600087803b1580156124f157600080fd5b505af1925050508015612521575060408051601f3d908101601f1916820190925261251e91810190612eec565b60015b61257b573d80801561254f576040519150601f19603f3d011682016040523d82523d6000602084013e612554565b606091505b5080516125735760405162461bcd60e51b815260040161097a90613470565b805181602001fd5b7fffffffff00000000000000000000000000000000000000000000000000000000167f150b7a0200000000000000000000000000000000000000000000000000000000149050611c9e565b506001611c9e565b60007fffffffff0000000000000000000000000000000000000000000000000000000082167f7965db0b0000000000000000000000000000000000000000000000000000000014806108a357506108a3826127a9565b60007f000000000000000000000000000000000000000000000000000000000000000046141561267557507f000000000000000000000000000000000000000000000000000000000000000061093b565b6126e07f00000000000000000000000000000000000000000000000000000000000000007f00000000000000000000000000000000000000000000000000000000000000007f00000000000000000000000000000000000000000000000000000000000000006127f3565b905061093b565b600082826040516020016126fc9291906130c2565b60405160208183030381529060405280519060200120905092915050565b612725838383610a32565b6001600160a01b0383166127415761273c8161282d565b612764565b816001600160a01b0316836001600160a01b031614612764576127648382612871565b6001600160a01b0382166127805761277b8161290e565b610a32565b826001600160a01b0316826001600160a01b031614610a3257610a3282826129e7565b3b151590565b7fffffffff0000000000000000000000000000000000000000000000000000000081167f01ffc9a70000000000000000000000000000000000000000000000000000000014919050565b6000838383463060405160200161280e959493929190613239565b6040516020818303038152906040528051906020012090509392505050565b600980546000838152600a60205260408120829055600182018355919091527f6e1540171b6c0c960b71a7020d9f60077f6af931a8bbf590da0223dacf75c7af0155565b6000600161287e84610fa9565b6128889190613df3565b6000838152600860205260409020549091508082146128db576001600160a01b03841660009081526007602090815260408083208584528252808320548484528184208190558352600890915290208190555b5060009182526008602090815260408084208490556001600160a01b039094168352600781528383209183525290812055565b60095460009061292090600190613df3565b6000838152600a60205260408120546009805493945090928490811061295657634e487b7160e01b600052603260045260246000fd5b90600052602060002001549050806009838154811061298557634e487b7160e01b600052603260045260246000fd5b6000918252602080832090910192909255828152600a909152604080822084905585825281205560098054806129cb57634e487b7160e01b600052603160045260246000fd5b6001900381819060005260206000200160009055905550505050565b60006129f283610fa9565b6001600160a01b039093166000908152600760209081526040808320868452825280832085905593825260089052919091209190915550565b828054612a3790613e36565b90600052602060002090601f016020900481019282612a595760008555612a9f565b82601f10612a725782800160ff19823516178555612a9f565b82800160010185558215612a9f579182015b82811115612a9f578235825591602001919060010190612a84565b50612aab929150612aaf565b5090565b5b80821115612aab5760008155600101612ab0565b80356001600160a01b03811681146108a657600080fd5b60008083601f840112612aec578182fd5b50813567ffffffffffffffff811115612b03578182fd5b602083019150836020828501011115612b1b57600080fd5b9250929050565b803560ff811681146108a657600080fd5b600060208284031215612b44578081fd5b6115e682612ac4565b60008060408385031215612b5f578081fd5b612b6883612ac4565b9150612b7660208401612ac4565b90509250929050565b600080600060608486031215612b93578081fd5b612b9c84612ac4565b9250612baa60208501612ac4565b9150604084013590509250925092565b60008060008060808587031215612bcf578081fd5b612bd885612ac4565b9350612be660208601612ac4565b925060408501359150606085013567ffffffffffffffff811115612c08578182fd5b8501601f81018713612c18578182fd5b8035612c2b612c2682613d9f565b613d6e565b818152886020838501011115612c3f578384fd5b81602084016020830137908101602001929092525092959194509250565b60008060408385031215612c6f578182fd5b612c7883612ac4565b91506020830135612c8881613f00565b809150509250929050565b600080600060408486031215612ca7578283fd5b612cb084612ac4565b9250602084013567ffffffffffffffff811115612ccb578283fd5b612cd786828701612adb565b9497909650939450505050565b60008060408385031215612cf6578182fd5b612cff83612ac4565b946020939093013593505050565b60008060008060008060c08789031215612d25578384fd5b612d2e87612ac4565b95506020870135945060408701359350612d4a60608801612b22565b92506080870135915060a087013590509295509295509295565b60008060208385031215612d76578182fd5b823567ffffffffffffffff80821115612d8d578384fd5b818501915085601f830112612da0578384fd5b813581811115612dae578485fd5b8660208083028501011115612dc1578485fd5b60209290920196919550909350505050565b60006020808385031215612de5578182fd5b823567ffffffffffffffff80821115612dfc578384fd5b818501915085601f830112612e0f578384fd5b813581811115612e2157612e21613eea565b8381029150612e31848301613d6e565b8181528481019084860184860187018a1015612e4b578788fd5b8795505b83861015612e6d578035835260019590950194918601918601612e4f565b5098975050505050505050565b600060208284031215612e8b578081fd5b81516115e681613f00565b600060208284031215612ea7578081fd5b5035919050565b60008060408385031215612ec0578182fd5b82359150612b7660208401612ac4565b600060208284031215612ee1578081fd5b81356115e681613f0e565b600060208284031215612efd578081fd5b81516115e681613f0e565b600060208284031215612f19578081fd5b815167ffffffffffffffff811115612f2f578182fd5b8201601f81018413612f3f578182fd5b8051612f4d612c2682613d9f565b818152856020838501011115612f61578384fd5b6123dc826020830160208601613e0a565b60008060208385031215612f84578182fd5b823567ffffffffffffffff811115612f9a578283fd5b612fa685828601612adb565b90969095509350505050565b600060208284031215612fc3578081fd5b5051919050565b600080600080600060a08688031215612fe1578283fd5b8535945060208601359350612ff860408701612b22565b94979396509394606081013594506080013592915050565b60008151808452613028816020860160208601613e0a565b601f01601f19169290920160200192915050565b6000835161304e818460208801613e0a565b835190830190613062818360208801613e0a565b01949350505050565b7f426f75676874546865546f704e46543a20696e76616c696420746f6b656e206f81527f776e6572200000000000000000000000000000000000000000000000000000006020820152602581019190915260450190565b7f190100000000000000000000000000000000000000000000000000000000000081526002810192909252602282015260420190565b6001600160a01b0391909116815260200190565b6001600160a01b039384168152919092166020820152604081019190915260600190565b60006001600160a01b038087168352808616602084015250836040830152608060608301526131626080830184613010565b9695505050505050565b6001600160a01b0394851681529290931660208301526040820152606081019190915260800190565b6001600160a01b03929092168252602082015260400190565b6000602082528260208301527f07ffffffffffffffffffffffffffffffffffffffffffffffffffffffffffffff8311156131e6578081fd5b60208302808560408501379190910160400190815292915050565b901515815260200190565b90815260200190565b9384526001600160a01b039290921660208401526040830152606082015260800190565b9485526020850193909352604084019190915260608301526001600160a01b0316608082015260a00190565b93845260ff9290921660208401526040830152606082015260800190565b6000602082526115e66020830184613010565b60006020825282602083015282846040840137818301604090810191909152601f909201601f19160101919050565b60208082526018908201527f45434453413a20696e76616c6964207369676e61747572650000000000000000604082015260600190565b60208082526024908201527f426f75676874546865546f704e46543a20696e76616c696420746f6b656e206f60408201527f776e657200000000000000000000000000000000000000000000000000000000606082015260800190565b6020808252602f908201527f416363657373436f6e74726f6c3a2073656e646572206d75737420626520616e60408201527f2061646d696e20746f206772616e740000000000000000000000000000000000606082015260800190565b6020808252602c908201527f426f75676874546865546f704e46543a20696e636f7272656374206d696e742060408201527f6665652070726f76696465640000000000000000000000000000000000000000606082015260800190565b6020808252602b908201527f455243373231456e756d657261626c653a206f776e657220696e646578206f7560408201527f74206f6620626f756e6473000000000000000000000000000000000000000000606082015260800190565b60208082526032908201527f4552433732313a207472616e7366657220746f206e6f6e20455243373231526560408201527f63656976657220696d706c656d656e7465720000000000000000000000000000606082015260800190565b6020808252601c908201527f4552433732313a20746f6b656e20616c7265616479206d696e74656400000000604082015260600190565b60208082526024908201527f4552433732313a207472616e7366657220746f20746865207a65726f2061646460408201527f7265737300000000000000000000000000000000000000000000000000000000606082015260800190565b60208082526019908201527f4552433732313a20617070726f766520746f2063616c6c657200000000000000604082015260600190565b60208082526022908201527f45434453413a20696e76616c6964207369676e6174757265202773272076616c60408201527f7565000000000000000000000000000000000000000000000000000000000000606082015260800190565b6020808252602c908201527f4552433732313a206f70657261746f7220717565727920666f72206e6f6e657860408201527f697374656e7420746f6b656e0000000000000000000000000000000000000000606082015260800190565b60208082526029908201527f426f75676874546865546f704e46543a206d7573742068617665206465706f7360408201527f69746f7220726f6c650000000000000000000000000000000000000000000000606082015260800190565b60208082526030908201527f416363657373436f6e74726f6c3a2073656e646572206d75737420626520616e60408201527f2061646d696e20746f207265766f6b6500000000000000000000000000000000606082015260800190565b60208082526038908201527f4552433732313a20617070726f76652063616c6c6572206973206e6f74206f7760408201527f6e6572206e6f7220617070726f76656420666f7220616c6c0000000000000000606082015260800190565b6020808252602a908201527f4552433732313a2062616c616e636520717565727920666f7220746865207a6560408201527f726f206164647265737300000000000000000000000000000000000000000000606082015260800190565b6020808252602b908201527f426f75676874546865546f704e46543a20746f6b656e20657869737473206f6e60408201527f20726f6f7420636861696e000000000000000000000000000000000000000000606082015260800190565b60208082526029908201527f4552433732313a206f776e657220717565727920666f72206e6f6e657869737460408201527f656e7420746f6b656e0000000000000000000000000000000000000000000000606082015260800190565b60208082526022908201527f45434453413a20696e76616c6964207369676e6174757265202776272076616c60408201527f7565000000000000000000000000000000000000000000000000000000000000606082015260800190565b6020808252818101527f4552433732313a206d696e7420746f20746865207a65726f2061646472657373604082015260600190565b60208082526028908201527f426f75676874546865546f704e46543a206d757374206861766520776974686460408201527f72617720726f6c65000000000000000000000000000000000000000000000000606082015260800190565b6020808252602c908201527f4552433732313a20617070726f76656420717565727920666f72206e6f6e657860408201527f697374656e7420746f6b656e0000000000000000000000000000000000000000606082015260800190565b60208082526029908201527f4552433732313a207472616e73666572206f6620746f6b656e2074686174206960408201527f73206e6f74206f776e0000000000000000000000000000000000000000000000606082015260800190565b6020808252602f908201527f4552433732314d657461646174613a2055524920717565727920666f72206e6f60408201527f6e6578697374656e7420746f6b656e0000000000000000000000000000000000606082015260800190565b60208082526021908201527f4552433732313a20617070726f76616c20746f2063757272656e74206f776e6560408201527f7200000000000000000000000000000000000000000000000000000000000000606082015260800190565b60208082526026908201527f426f75676874546865546f704e46543a206d7573742068617665206d696e746560408201527f7220726f6c650000000000000000000000000000000000000000000000000000606082015260800190565b60208082526025908201527f426f75676874546865546f704e46543a206d75737420686176652061646d696e60408201527f20726f6c65000000000000000000000000000000000000000000000000000000606082015260800190565b60208082526031908201527f4552433732313a207472616e736665722063616c6c6572206973206e6f74206f60408201527f776e6572206e6f7220617070726f766564000000000000000000000000000000606082015260800190565b6020808252602c908201527f455243373231456e756d657261626c653a20676c6f62616c20696e646578206f60408201527f7574206f6620626f756e64730000000000000000000000000000000000000000606082015260800190565b60208082526030908201527f4552433732314275726e61626c653a2063616c6c6572206973206e6f74206f7760408201527f6e6572206e6f7220617070726f76656400000000000000000000000000000000606082015260800190565b60208082526024908201527f426f75676874546865546f704e46543a2065786365656473206261746368206c60408201527f696d697400000000000000000000000000000000000000000000000000000000606082015260800190565b6020808252602f908201527f416363657373436f6e74726f6c3a2063616e206f6e6c792072656e6f756e636560408201527f20726f6c657320666f722073656c660000000000000000000000000000000000606082015260800190565b604051601f8201601f1916810167ffffffffffffffff81118282101715613d9757613d97613eea565b604052919050565b600067ffffffffffffffff821115613db957613db9613eea565b50601f01601f191660200190565b60008219821115613dda57613dda613ebe565b500190565b600082613dee57613dee613ed4565b500490565b600082821015613e0557613e05613ebe565b500390565b60005b83811015613e25578181015183820152602001613e0d565b838111156115645750506000910152565b600281046001821680613e4a57607f821691505b60208210811415613e6b57634e487b7160e01b600052602260045260246000fd5b50919050565b60007fffffffffffffffffffffffffffffffffffffffffffffffffffffffffffffffff821415613ea357613ea3613ebe565b5060010190565b600082613eb957613eb9613ed4565b500690565b634e487b7160e01b600052601160045260246000fd5b634e487b7160e01b600052601260045260246000fd5b634e487b7160e01b600052604160045260246000fd5b8015158114610c3157600080fd5b7fffffffff0000000000000000000000000000000000000000000000000000000081168114610c3157600080fdfea2646970667358221220d142b956911d2dda0eebed3adc339f48e105cb59fc4c92d2828f367a4ef624bc64736f6c63430008010033",
  "devdoc": {
    "kind": "dev",
    "methods": {
      "approve(address,uint256)": {
        "details": "See {IERC721-approve}."
      },
      "balanceOf(address)": {
        "details": "See {IERC721-balanceOf}."
      },
      "burn(uint256)": {
        "details": "Burns `tokenId`. See {ERC721-_burn}. Requirements: - The caller must own `tokenId` or be an approved operator. - {burnAllowed} must be true"
      },
      "constructor": {
        "details": "Initialize contract, owner will be set to the account that deploys the contract."
      },
      "deposit(address,bytes)": {
        "details": "Should be callable only by ChildChainManager Should handle deposit by minting the required tokenId(s) for user Should set `withdrawnTokens` mapping to `false` for the tokenId being deposited Minting can also be done by other functions",
        "params": {
          "depositData": "abi encoded tokenIds. Batch deposit also supported.",
          "user": "user address for whom deposit is being done"
        }
      },
      "getApproved(uint256)": {
        "details": "See {IERC721-getApproved}."
      },
      "getRoleAdmin(bytes32)": {
        "details": "Returns the admin role that controls `role`. See {grantRole} and {revokeRole}. To change a role's admin, use {_setRoleAdmin}."
      },
      "grantRole(bytes32,address)": {
        "details": "Grants `role` to `account`. If `account` had not been already granted `role`, emits a {RoleGranted} event. Requirements: - the caller must have ``role``'s admin role."
      },
      "hasRole(bytes32,address)": {
        "details": "Returns `true` if `account` has been granted `role`."
      },
      "isApprovedForAll(address,address)": {
        "details": "See {IERC721-isApprovedForAll}."
      },
      "mint(uint256,uint256,uint8,bytes32,bytes32)": {
        "details": "Creates a new token for caller with ID `tokenId` using an off-chain signature  See {ERC721-_mint}. Requirements: - caller is owner of token - {mintFee} wei sent with call if caller does not have `MINTER_ROLE` - signature v, r, s must be signed by account with `MINTER_ROLE`"
      },
      "mintTo(address,uint256,uint256,uint8,bytes32,bytes32)": {
        "details": "Creates a new token for `to` with ID `tokenId` using an off-chain signature See {ERC721-_mint}. Requirements: - {mintFee} wei sent with call if caller does not have `MINTER_ROLE` - signature v, r, s must be signed by account with `MINTER_ROLE`"
      },
      "name()": {
        "details": "See {IERC721Metadata-name}."
      },
      "ownerOf(uint256)": {
        "details": "See {IERC721-ownerOf}."
      },
      "renounceRole(bytes32,address)": {
        "details": "Revokes `role` from the calling account. Roles are often managed via {grantRole} and {revokeRole}: this function's purpose is to provide a mechanism for accounts to lose their privileges if they are compromised (such as when a trusted device is misplaced). If the calling account had been granted `role`, emits a {RoleRevoked} event. Requirements: - the caller must be `account`."
      },
      "rescue(address)": {
        "details": "Rescue any ERC-20 token the contract may hold",
        "params": {
          "_token": "ERC-20 token address Requirements: - the caller must have the `WITHDRAW_ROLE`."
        }
      },
      "revokeRole(bytes32,address)": {
        "details": "Revokes `role` from `account`. If `account` had been granted `role`, emits a {RoleRevoked} event. Requirements: - the caller must have ``role``'s admin role."
      },
      "safeTransferFrom(address,address,uint256)": {
        "details": "See {IERC721-safeTransferFrom}."
      },
      "safeTransferFrom(address,address,uint256,bytes)": {
        "details": "See {IERC721-safeTransferFrom}."
      },
      "setApprovalForAll(address,bool)": {
        "details": "See {IERC721-setApprovalForAll}."
      },
      "setBaseTokenURI(string)": {
        "details": "Set the base URI for all tokens. See {ERC721-tokenURI} Requirements: - the caller must have the `DEFAULT_ADMIN_ROLE`."
      },
      "setMintFee(uint256)": {
        "details": "Set the fee to mint a new token. Requirements: - the caller must have the `DEFAULT_ADMIN_ROLE`."
      },
      "setOnBurn(address)": {
        "details": "Set burn extra logic cotnract Requirements: - the caller must have the `DEFAULT_ADMIN_ROLE`."
      },
      "setOnMint(address)": {
        "details": "Set mint extra logic cotnract Requirements: - the caller must have the `DEFAULT_ADMIN_ROLE`."
      },
      "setOnTransfer(address)": {
        "details": "Set transfer extra logic contract Requirements: - the caller must have the `DEFAULT_ADMIN_ROLE`."
      },
      "supportsInterface(bytes4)": {
        "details": "See {IERC165-supportsInterface}."
      },
      "symbol()": {
        "details": "See {IERC721Metadata-symbol}."
      },
      "tokenByIndex(uint256)": {
        "details": "See {IERC721Enumerable-tokenByIndex}."
      },
      "tokenOfOwnerByIndex(address,uint256)": {
        "details": "See {IERC721Enumerable-tokenOfOwnerByIndex}."
      },
      "tokenURI(uint256)": {
        "details": "See {IERC721Metadata-tokenURI}."
      },
      "totalSupply()": {
        "details": "See {IERC721Enumerable-totalSupply}."
      },
      "transferFrom(address,address,uint256)": {
        "details": "See {IERC721-transferFrom}."
      },
      "withdraw(uint256)": {
        "details": "Should handle withraw by burning user's token. Should set `withdrawnTokens` mapping to `true` for the tokenId being withdrawn This transaction will be verified when exiting on root chain",
        "params": {
          "tokenId": "tokenId to withdraw"
        }
      },
      "withdrawBatch(uint256[])": {
        "details": "Should burn user's tokens. This transaction will be verified when exiting on root chain",
        "params": {
          "tokenIds": "tokenId list to withdraw"
        }
      },
      "withdrawFees()": {
        "details": "Withdraw all accumulated ether from the contract Requirements: - the caller must have the `WITHDRAW_ROLE`."
      },
      "withdrawWithMetadata(uint256)": {
        "details": "Should handle withraw by burning user's token. Should set `withdrawnTokens` mapping to `true` for the tokenId being withdrawn This transaction will be verified when exiting on root chain",
        "params": {
          "tokenId": "tokenId to withdraw"
        }
      }
    },
    "version": 1
  },
  "userdoc": {
    "events": {
      "BaseTokenURIChanged(string)": {
        "notice": "Emitted when the base token URI changes"
      },
      "FeesWithdrawn(uint256)": {
        "notice": "Emitted when fees are withdrawn"
      },
      "MintFeeChanged(uint256)": {
        "notice": "Emitted when the {mintFee} changes"
      },
      "OnBurnChanged(address)": {
        "notice": "Emitted when {onBurn} changes"
      },
      "OnMintChanged(address)": {
        "notice": "Emitted when {onMint} changes"
      },
      "OnTransferChanged(address)": {
        "notice": "Emitted when {onTransfer} changes"
      },
      "TransferWithMetadata(address,address,uint256,bytes)": {
        "notice": "Emitted when an NFT is withdrawn"
      },
      "WithdrawnBatch(address,uint256[])": {
        "notice": "Emitted when multiple NFTs are withdrawn"
      }
    },
    "kind": "user",
    "methods": {
      "BATCH_LIMIT()": {
        "notice": "Maxmimum number of NFTs that can be transferred in a batch due to gas limit restrictions"
      },
      "DEPOSITOR_ROLE()": {
        "notice": "Role identifier for cross-chain depositor"
      },
      "MINTER_ROLE()": {
        "notice": "Role identifer for minter"
      },
      "MINT_TYPEHASH()": {
        "notice": "EIP-712 typehash for mint"
      },
      "WITHDRAW_ROLE()": {
        "notice": "Role identifier for fee withdrawer"
      },
      "baseTokenURI()": {
        "notice": "Base of metdata URI"
      },
      "deposit(address,bytes)": {
        "notice": "called when token is deposited on root chain"
      },
      "encodeTokenMetadata(uint256)": {
        "notice": "This method is supposed to be called by client when withdrawing token with metadata and pass return value of this function as second paramter of `withdrawWithMetadata` method It can be overridden by clients to encode data in a different form, which needs to be decoded back by them correctly during exiting"
      },
      "mintFee()": {
        "notice": "Ether fee to mint a new NFT"
      },
      "onBurn()": {
        "notice": "Contract to handle extra burn logic"
      },
      "onMint()": {
        "notice": "Contract to handle extra mint logic"
      },
      "onTransfer()": {
        "notice": "Contract to handle extra transfer logic"
      },
      "withdraw(uint256)": {
        "notice": "called when user wants to withdraw token back to root chain"
      },
      "withdrawBatch(uint256[])": {
        "notice": "called when user wants to withdraw multiple tokens back to root chain"
      },
      "withdrawWithMetadata(uint256)": {
        "notice": "called when user wants to withdraw token back to root chain with token URI"
      },
      "withdrawnTokens(uint256)": {
        "notice": "NFTs that have been withdrawn to the root chain"
      }
    },
    "version": 1
  },
  "storageLayout": {
    "storage": [
      {
        "astId": 5184,
        "contract": "contracts/BoughtTheTopNFTChild.sol:BoughtTheTopNFTChild",
        "label": "_roles",
        "offset": 0,
        "slot": "0",
        "type": "t_mapping(t_bytes32,t_struct(RoleData)5179_storage)"
      },
      {
        "astId": 2055,
        "contract": "contracts/BoughtTheTopNFTChild.sol:BoughtTheTopNFTChild",
        "label": "_name",
        "offset": 0,
        "slot": "1",
        "type": "t_string_storage"
      },
      {
        "astId": 2057,
        "contract": "contracts/BoughtTheTopNFTChild.sol:BoughtTheTopNFTChild",
        "label": "_symbol",
        "offset": 0,
        "slot": "2",
        "type": "t_string_storage"
      },
      {
        "astId": 2061,
        "contract": "contracts/BoughtTheTopNFTChild.sol:BoughtTheTopNFTChild",
        "label": "_owners",
        "offset": 0,
        "slot": "3",
        "type": "t_mapping(t_uint256,t_address)"
      },
      {
        "astId": 2065,
        "contract": "contracts/BoughtTheTopNFTChild.sol:BoughtTheTopNFTChild",
        "label": "_balances",
        "offset": 0,
        "slot": "4",
        "type": "t_mapping(t_address,t_uint256)"
      },
      {
        "astId": 2069,
        "contract": "contracts/BoughtTheTopNFTChild.sol:BoughtTheTopNFTChild",
        "label": "_tokenApprovals",
        "offset": 0,
        "slot": "5",
        "type": "t_mapping(t_uint256,t_address)"
      },
      {
        "astId": 2075,
        "contract": "contracts/BoughtTheTopNFTChild.sol:BoughtTheTopNFTChild",
        "label": "_operatorApprovals",
        "offset": 0,
        "slot": "6",
        "type": "t_mapping(t_address,t_mapping(t_address,t_bool))"
      },
      {
        "astId": 2864,
        "contract": "contracts/BoughtTheTopNFTChild.sol:BoughtTheTopNFTChild",
        "label": "_ownedTokens",
        "offset": 0,
        "slot": "7",
        "type": "t_mapping(t_address,t_mapping(t_uint256,t_uint256))"
      },
      {
        "astId": 2868,
        "contract": "contracts/BoughtTheTopNFTChild.sol:BoughtTheTopNFTChild",
        "label": "_ownedTokensIndex",
        "offset": 0,
        "slot": "8",
        "type": "t_mapping(t_uint256,t_uint256)"
      },
      {
        "astId": 2871,
        "contract": "contracts/BoughtTheTopNFTChild.sol:BoughtTheTopNFTChild",
        "label": "_allTokens",
        "offset": 0,
        "slot": "9",
        "type": "t_array(t_uint256)dyn_storage"
      },
      {
        "astId": 2875,
        "contract": "contracts/BoughtTheTopNFTChild.sol:BoughtTheTopNFTChild",
        "label": "_allTokensIndex",
        "offset": 0,
        "slot": "10",
        "type": "t_mapping(t_uint256,t_uint256)"
      },
      {
        "astId": 24,
        "contract": "contracts/BoughtTheTopNFTChild.sol:BoughtTheTopNFTChild",
        "label": "baseTokenURI",
        "offset": 0,
        "slot": "11",
        "type": "t_string_storage"
      },
      {
        "astId": 27,
        "contract": "contracts/BoughtTheTopNFTChild.sol:BoughtTheTopNFTChild",
        "label": "mintFee",
        "offset": 0,
        "slot": "12",
        "type": "t_uint256"
      },
      {
        "astId": 30,
        "contract": "contracts/BoughtTheTopNFTChild.sol:BoughtTheTopNFTChild",
        "label": "onMint",
        "offset": 0,
        "slot": "13",
        "type": "t_address"
      },
      {
        "astId": 33,
        "contract": "contracts/BoughtTheTopNFTChild.sol:BoughtTheTopNFTChild",
        "label": "onBurn",
        "offset": 0,
        "slot": "14",
        "type": "t_address"
      },
      {
        "astId": 36,
        "contract": "contracts/BoughtTheTopNFTChild.sol:BoughtTheTopNFTChild",
        "label": "onTransfer",
        "offset": 0,
        "slot": "15",
        "type": "t_address"
      },
      {
        "astId": 41,
        "contract": "contracts/BoughtTheTopNFTChild.sol:BoughtTheTopNFTChild",
        "label": "withdrawnTokens",
        "offset": 0,
        "slot": "16",
        "type": "t_mapping(t_uint256,t_bool)"
      }
    ],
    "types": {
      "t_address": {
        "encoding": "inplace",
        "label": "address",
        "numberOfBytes": "20"
      },
      "t_array(t_uint256)dyn_storage": {
        "base": "t_uint256",
        "encoding": "dynamic_array",
        "label": "uint256[]",
        "numberOfBytes": "32"
      },
      "t_bool": {
        "encoding": "inplace",
        "label": "bool",
        "numberOfBytes": "1"
      },
      "t_bytes32": {
        "encoding": "inplace",
        "label": "bytes32",
        "numberOfBytes": "32"
      },
      "t_mapping(t_address,t_bool)": {
        "encoding": "mapping",
        "key": "t_address",
        "label": "mapping(address => bool)",
        "numberOfBytes": "32",
        "value": "t_bool"
      },
      "t_mapping(t_address,t_mapping(t_address,t_bool))": {
        "encoding": "mapping",
        "key": "t_address",
        "label": "mapping(address => mapping(address => bool))",
        "numberOfBytes": "32",
        "value": "t_mapping(t_address,t_bool)"
      },
      "t_mapping(t_address,t_mapping(t_uint256,t_uint256))": {
        "encoding": "mapping",
        "key": "t_address",
        "label": "mapping(address => mapping(uint256 => uint256))",
        "numberOfBytes": "32",
        "value": "t_mapping(t_uint256,t_uint256)"
      },
      "t_mapping(t_address,t_uint256)": {
        "encoding": "mapping",
        "key": "t_address",
        "label": "mapping(address => uint256)",
        "numberOfBytes": "32",
        "value": "t_uint256"
      },
      "t_mapping(t_bytes32,t_struct(RoleData)5179_storage)": {
        "encoding": "mapping",
        "key": "t_bytes32",
        "label": "mapping(bytes32 => struct AccessControl.RoleData)",
        "numberOfBytes": "32",
        "value": "t_struct(RoleData)5179_storage"
      },
      "t_mapping(t_uint256,t_address)": {
        "encoding": "mapping",
        "key": "t_uint256",
        "label": "mapping(uint256 => address)",
        "numberOfBytes": "32",
        "value": "t_address"
      },
      "t_mapping(t_uint256,t_bool)": {
        "encoding": "mapping",
        "key": "t_uint256",
        "label": "mapping(uint256 => bool)",
        "numberOfBytes": "32",
        "value": "t_bool"
      },
      "t_mapping(t_uint256,t_uint256)": {
        "encoding": "mapping",
        "key": "t_uint256",
        "label": "mapping(uint256 => uint256)",
        "numberOfBytes": "32",
        "value": "t_uint256"
      },
      "t_string_storage": {
        "encoding": "bytes",
        "label": "string",
        "numberOfBytes": "32"
      },
      "t_struct(RoleData)5179_storage": {
        "encoding": "inplace",
        "label": "struct AccessControl.RoleData",
        "members": [
          {
            "astId": 5176,
            "contract": "contracts/BoughtTheTopNFTChild.sol:BoughtTheTopNFTChild",
            "label": "members",
            "offset": 0,
            "slot": "0",
            "type": "t_mapping(t_address,t_bool)"
          },
          {
            "astId": 5178,
            "contract": "contracts/BoughtTheTopNFTChild.sol:BoughtTheTopNFTChild",
            "label": "adminRole",
            "offset": 0,
            "slot": "1",
            "type": "t_bytes32"
          }
        ],
        "numberOfBytes": "64"
      },
      "t_uint256": {
        "encoding": "inplace",
        "label": "uint256",
        "numberOfBytes": "32"
      }
    }
  }
}