{
  "address": "0x7574a85Ec062d26092A72441Dbc88269d1c70d90",
  "abi": [
    {
      "inputs": [
        {
          "internalType": "address",
          "name": "_rewardToken",
          "type": "address"
        },
        {
          "internalType": "address",
          "name": "_caller",
          "type": "address"
        }
      ],
      "stateMutability": "nonpayable",
      "type": "constructor"
    },
    {
      "anonymous": false,
      "inputs": [
        {
          "indexed": true,
          "internalType": "address",
          "name": "recipient",
          "type": "address"
        },
        {
          "indexed": true,
          "internalType": "uint256",
          "name": "amount",
          "type": "uint256"
        },
        {
          "indexed": false,
          "internalType": "uint256",
          "name": "startTime",
          "type": "uint256"
        },
        {
          "indexed": false,
          "internalType": "uint16",
          "name": "vestingDurationInDays",
          "type": "uint16"
        },
        {
          "indexed": false,
          "internalType": "uint16",
          "name": "vestingCliffInDays",
          "type": "uint16"
        }
      ],
      "name": "GrantAdded",
      "type": "event"
    },
    {
      "anonymous": false,
      "inputs": [
        {
          "indexed": true,
          "internalType": "address",
          "name": "recipient",
          "type": "address"
        },
        {
          "indexed": true,
          "internalType": "uint256",
          "name": "amountClaimed",
          "type": "uint256"
        }
      ],
      "name": "GrantTokensClaimed",
      "type": "event"
    },
    {
      "anonymous": false,
      "inputs": [
        {
          "indexed": true,
          "internalType": "address",
          "name": "previousOwner",
          "type": "address"
        },
        {
          "indexed": true,
          "internalType": "address",
          "name": "newOwner",
          "type": "address"
        }
      ],
      "name": "OwnershipTransferred",
      "type": "event"
    },
    {
      "anonymous": false,
      "inputs": [
        {
          "indexed": false,
          "internalType": "uint256",
          "name": "startBlock",
          "type": "uint256"
        },
        {
          "indexed": false,
          "internalType": "uint256",
          "name": "endBlock",
          "type": "uint256"
        },
        {
          "indexed": false,
          "internalType": "uint256",
          "name": "eligibleStartBlock",
          "type": "uint256"
        },
        {
          "indexed": false,
          "internalType": "uint256",
          "name": "eligibleEndBlock",
          "type": "uint256"
        },
        {
          "indexed": false,
          "internalType": "uint16",
          "name": "vestingDuration",
          "type": "uint16"
        },
        {
          "indexed": false,
          "internalType": "uint256",
          "name": "amount",
          "type": "uint256"
        }
      ],
      "name": "RewardParametersChanged",
      "type": "event"
    },
    {
      "inputs": [
        {
          "internalType": "address",
          "name": "recipient",
          "type": "address"
        },
        {
          "internalType": "uint256",
          "name": "startTime",
          "type": "uint256"
        },
        {
          "internalType": "uint256",
          "name": "amount",
          "type": "uint256"
        },
        {
          "internalType": "uint16",
          "name": "vestingDurationInDays",
          "type": "uint16"
        },
        {
          "internalType": "uint16",
          "name": "vestingCliffInDays",
          "type": "uint16"
        }
      ],
      "name": "addTokenGrant",
      "outputs": [],
      "stateMutability": "nonpayable",
      "type": "function"
    },
    {
      "inputs": [
        {
          "internalType": "address",
          "name": "recipient",
          "type": "address"
        }
      ],
      "name": "calculateGrantClaim",
      "outputs": [
        {
          "internalType": "uint256",
          "name": "",
          "type": "uint256"
        }
      ],
      "stateMutability": "view",
      "type": "function"
    },
    {
      "inputs": [],
      "name": "caller",
      "outputs": [
        {
          "internalType": "address",
          "name": "",
          "type": "address"
        }
      ],
      "stateMutability": "view",
      "type": "function"
    },
    {
      "inputs": [
        {
          "internalType": "address",
          "name": "recipient",
          "type": "address"
        }
      ],
      "name": "claimVestedTokens",
      "outputs": [],
      "stateMutability": "nonpayable",
      "type": "function"
    },
    {
      "inputs": [
        {
          "internalType": "address",
          "name": "recipient",
          "type": "address"
        }
      ],
      "name": "claimedBalance",
      "outputs": [
        {
          "internalType": "uint256",
          "name": "",
          "type": "uint256"
        }
      ],
      "stateMutability": "view",
      "type": "function"
    },
    {
      "inputs": [
        {
          "internalType": "address",
          "name": "recipient",
          "type": "address"
        }
      ],
      "name": "getTokenGrant",
      "outputs": [
        {
          "components": [
            {
              "internalType": "uint256",
              "name": "startTime",
              "type": "uint256"
            },
            {
              "internalType": "uint256",
              "name": "amount",
              "type": "uint256"
            },
            {
              "internalType": "uint16",
              "name": "vestingDuration",
              "type": "uint16"
            },
            {
              "internalType": "uint16",
              "name": "vestingCliff",
              "type": "uint16"
            },
            {
              "internalType": "uint256",
              "name": "totalClaimed",
              "type": "uint256"
            }
          ],
          "internalType": "struct RewardVesting.Grant",
          "name": "",
          "type": "tuple"
        }
      ],
      "stateMutability": "view",
      "type": "function"
    },
    {
      "inputs": [
        {
          "internalType": "address",
          "name": "",
          "type": "address"
        },
        {
          "internalType": "address",
          "name": "to",
          "type": "address"
        },
        {
          "internalType": "uint256",
          "name": "",
          "type": "uint256"
        },
        {
          "internalType": "uint256",
          "name": "extra",
          "type": "uint256"
        }
      ],
      "name": "onMint",
      "outputs": [],
      "stateMutability": "nonpayable",
      "type": "function"
    },
    {
      "inputs": [],
      "name": "owner",
      "outputs": [
        {
          "internalType": "address",
          "name": "",
          "type": "address"
        }
      ],
      "stateMutability": "view",
      "type": "function"
    },
    {
      "inputs": [],
      "name": "renounceOwnership",
      "outputs": [],
      "stateMutability": "nonpayable",
      "type": "function"
    },
    {
      "inputs": [
        {
          "internalType": "address",
          "name": "_token",
          "type": "address"
        }
      ],
      "name": "rescue",
      "outputs": [],
      "stateMutability": "nonpayable",
      "type": "function"
    },
    {
      "inputs": [],
      "name": "rewardAmount",
      "outputs": [
        {
          "internalType": "uint256",
          "name": "",
          "type": "uint256"
        }
      ],
      "stateMutability": "view",
      "type": "function"
    },
    {
      "inputs": [],
      "name": "rewardEarnEndBlock",
      "outputs": [
        {
          "internalType": "uint256",
          "name": "",
          "type": "uint256"
        }
      ],
      "stateMutability": "view",
      "type": "function"
    },
    {
      "inputs": [],
      "name": "rewardEarnStartBlock",
      "outputs": [
        {
          "internalType": "uint256",
          "name": "",
          "type": "uint256"
        }
      ],
      "stateMutability": "view",
      "type": "function"
    },
    {
      "inputs": [],
      "name": "rewardEligibleEndBlock",
      "outputs": [
        {
          "internalType": "uint256",
          "name": "",
          "type": "uint256"
        }
      ],
      "stateMutability": "view",
      "type": "function"
    },
    {
      "inputs": [],
      "name": "rewardEligibleStartBlock",
      "outputs": [
        {
          "internalType": "uint256",
          "name": "",
          "type": "uint256"
        }
      ],
      "stateMutability": "view",
      "type": "function"
    },
    {
      "inputs": [],
      "name": "rewardToken",
      "outputs": [
        {
          "internalType": "contract IERC20",
          "name": "",
          "type": "address"
        }
      ],
      "stateMutability": "view",
      "type": "function"
    },
    {
      "inputs": [],
      "name": "rewardVestingDuration",
      "outputs": [
        {
          "internalType": "uint16",
          "name": "",
          "type": "uint16"
        }
      ],
      "stateMutability": "view",
      "type": "function"
    },
    {
      "inputs": [
        {
          "internalType": "uint256",
          "name": "startBlock",
          "type": "uint256"
        },
        {
          "internalType": "uint256",
          "name": "endBlock",
          "type": "uint256"
        },
        {
          "internalType": "uint256",
          "name": "eligibleStartBlock",
          "type": "uint256"
        },
        {
          "internalType": "uint256",
          "name": "eligibleEndBlock",
          "type": "uint256"
        },
        {
          "internalType": "uint16",
          "name": "vestingDuration",
          "type": "uint16"
        },
        {
          "internalType": "uint256",
          "name": "amount",
          "type": "uint256"
        }
      ],
      "name": "setRewardParameters",
      "outputs": [],
      "stateMutability": "nonpayable",
      "type": "function"
    },
    {
      "inputs": [
        {
          "internalType": "address",
          "name": "",
          "type": "address"
        }
      ],
      "name": "tokenGrants",
      "outputs": [
        {
          "internalType": "uint256",
          "name": "startTime",
          "type": "uint256"
        },
        {
          "internalType": "uint256",
          "name": "amount",
          "type": "uint256"
        },
        {
          "internalType": "uint16",
          "name": "vestingDuration",
          "type": "uint16"
        },
        {
          "internalType": "uint16",
          "name": "vestingCliff",
          "type": "uint16"
        },
        {
          "internalType": "uint256",
          "name": "totalClaimed",
          "type": "uint256"
        }
      ],
      "stateMutability": "view",
      "type": "function"
    },
    {
      "inputs": [
        {
          "internalType": "address",
          "name": "recipient",
          "type": "address"
        }
      ],
      "name": "tokensVestedPerDay",
      "outputs": [
        {
          "internalType": "uint256",
          "name": "",
          "type": "uint256"
        }
      ],
      "stateMutability": "view",
      "type": "function"
    },
    {
      "inputs": [
        {
          "internalType": "address",
          "name": "newOwner",
          "type": "address"
        }
      ],
      "name": "transferOwnership",
      "outputs": [],
      "stateMutability": "nonpayable",
      "type": "function"
    },
    {
      "inputs": [
        {
          "internalType": "address",
          "name": "recipient",
          "type": "address"
        }
      ],
      "name": "vestedBalance",
      "outputs": [
        {
          "internalType": "uint256",
          "name": "",
          "type": "uint256"
        }
      ],
      "stateMutability": "view",
      "type": "function"
    }
  ],
  "transactionHash": "0x20b6973aeed9b40bb636a39c85154270170a7b7e5f74a2d89c41f3be2d0d93c1",
  "args": [
    "0x04AE4aE7F9af802DE5A2Da9561948F6f24D4b043",
    "0x386d661252e4bebab2fD9683538905e4eB0cd0DE"
  ],
  "solcInputHash": "2c0f34bf459432ba062ce10cbc33ee50",
  "bytecode": "0x60806040523480156200001157600080fd5b5060405162001d2d38038062001d2d8339810160408190526200003491620001d6565b600062000040620001a6565b600080546001600160a01b0319166001600160a01b0383169081178255604051929350917f8be0079c531659141344cd1fd0a4f28419497f9722a3daafe3b4186f6b6457e0908290a3506001600160a01b038216620000bc5760405162461bcd60e51b8152600401620000b3906200024f565b60405180910390fd5b6001600160a01b038116620000e55760405162461bcd60e51b8152600401620000b3906200029b565b600780546001600160a01b038085166001600160a01b03199283161792839055600980548583169316929092179091551663095ea7b362000125620001aa565b6000196040518363ffffffff1660e01b81526004016200014792919062000236565b602060405180830381600087803b1580156200016257600080fd5b505af115801562000177573d6000803e3d6000fd5b505050506040513d601f19601f820116820180604052508101906200019d91906200020d565b505050620002db565b3390565b6000546001600160a01b031690565b80516001600160a01b0381168114620001d157600080fd5b919050565b60008060408385031215620001e9578182fd5b620001f483620001b9565b91506200020460208401620001b9565b90509250929050565b6000602082840312156200021f578081fd5b815180151581146200022f578182fd5b9392505050565b6001600160a01b03929092168252602082015260400190565b602080825260379082015260008051602062001d0d83398151915260408201527f2062652076616c696420746f6b656e2061646472657373000000000000000000606082015260800190565b602080825260319082015260008051602062001d0d8339815191526040820152702062652076616c6964206164647265737360781b606082015260800190565b611a2280620002eb6000396000f3fe608060405234801561001057600080fd5b50600436106101825760003560e01c80639886c2a5116100d8578063f2fde38b1161008c578063fb0ec86c11610066578063fb0ec86c146102dd578063fc9c8d39146102f0578063fd75b8d4146102f857610182565b8063f2fde38b146102ba578063f7b2a7be146102cd578063f7c618c1146102d557610182565b8063b81a4d8f116100bd578063b81a4d8f14610279578063de05de981461029d578063ee0ea6ba146102b257610182565b80639886c2a51461025357806398f3b12d1461026657610182565b80636087349c1161013a578063839006f211610114578063839006f2146102185780638da5cb5b1461022b5780639114557e1461024057610182565b80636087349c146101f557806368fe092f14610208578063715018a61461021057610182565b80633f812ccc1161016b5780633f812ccc146101c55780634a372ad9146101da5780635ca2fc53146101e257610182565b80630c933acc14610187578063376d3b8f146101a5575b600080fd5b61018f61030b565b60405161019c91906118a2565b60405180910390f35b6101b86101b3366004611127565b610311565b60405161019c919061184f565b6101d86101d3366004611141565b61038c565b005b61018f61044e565b6101d86101f0366004611182565b610454565b61018f610203366004611127565b610722565b61018f610765565b6101d861076b565b6101d8610226366004611127565b610833565b6102336109ae565b60405161019c9190611260565b61018f61024e366004611127565b6109ca565b61018f610261366004611127565b610ab4565b6101d8610274366004611127565b610adf565b61028c610287366004611127565b610c53565b60405161019c9594939291906118c5565b6102a5610c89565b60405161019c9190611893565b61018f610c93565b6101d86102c8366004611127565b610c99565b61018f610db2565b610233610db8565b6101d86102eb366004611210565b610dd4565b610233610f48565b61018f610306366004611127565b610f64565b60025481565b6103196110ba565b5073ffffffffffffffffffffffffffffffffffffffff8116600090815260086020908152604091829020825160a08101845281548152600182015492810192909252600281015461ffff80821694840194909452620100009004909216606082015260039091015460808201525b919050565b60095473ffffffffffffffffffffffffffffffffffffffff1633146103cc5760405162461bcd60e51b81526004016103c390611738565b60405180910390fd5b60015443101580156103e057506002544311155b80156103ee57506004548110155b80156103fc57506005548111155b156104485773ffffffffffffffffffffffffffffffffffffffff8316600090815260086020526040902060010154610448576006546003546104489185916000919061ffff1682610454565b50505050565b60015481565b61045c6109ae565b73ffffffffffffffffffffffffffffffffffffffff163373ffffffffffffffffffffffffffffffffffffffff1614806104ac575060095473ffffffffffffffffffffffffffffffffffffffff1633145b6104c85760405162461bcd60e51b81526004016103c3906113be565b610e428161ffff1611156104ee5760405162461bcd60e51b81526004016103c3906117f2565b60008261ffff16116105125760405162461bcd60e51b81526004016103c3906116a6565b6123a58261ffff1611156105385760405162461bcd60e51b81526004016103c390611361565b8061ffff168261ffff1610156105605760405162461bcd60e51b81526004016103c3906114d5565b73ffffffffffffffffffffffffffffffffffffffff8516600090815260086020526040902060010154156105a65760405162461bcd60e51b81526004016103c390611304565b60006105b68461ffff8516611086565b9050600081116105d85760405162461bcd60e51b81526004016103c390611795565b600085156105e657856105e8565b425b905060006040518060a001604052808381526020018781526020018661ffff1681526020018561ffff1681526020016000815250905080600860008a73ffffffffffffffffffffffffffffffffffffffff1673ffffffffffffffffffffffffffffffffffffffff168152602001908152602001600020600082015181600001556020820151816001015560408201518160020160006101000a81548161ffff021916908361ffff16021790555060608201518160020160026101000a81548161ffff021916908361ffff16021790555060808201518160030155905050858873ffffffffffffffffffffffffffffffffffffffff167f289b4a3bfb88b0c05450910f26d440c9e13127d17a232782f02184d45606bd53848888604051610710939291906118ab565b60405180910390a35050505050505050565b73ffffffffffffffffffffffffffffffffffffffff811660009081526008602052604081206002810154600182015461075e9161ffff16611086565b9392505050565b60045481565b610773611092565b73ffffffffffffffffffffffffffffffffffffffff166107916109ae565b73ffffffffffffffffffffffffffffffffffffffff16146107c45760405162461bcd60e51b81526004016103c390611703565b6000805460405173ffffffffffffffffffffffffffffffffffffffff909116907f8be0079c531659141344cd1fd0a4f28419497f9722a3daafe3b4186f6b6457e0908390a3600080547fffffffffffffffffffffffff0000000000000000000000000000000000000000169055565b61083b611092565b73ffffffffffffffffffffffffffffffffffffffff166108596109ae565b73ffffffffffffffffffffffffffffffffffffffff161461088c5760405162461bcd60e51b81526004016103c390611703565b6040517f70a08231000000000000000000000000000000000000000000000000000000008152819073ffffffffffffffffffffffffffffffffffffffff82169063a9059cbb90339083906370a08231906108ea903090600401611260565b60206040518083038186803b15801561090257600080fd5b505afa158015610916573d6000803e3d6000fd5b505050506040513d601f19601f8201168201806040525081019061093a91906111f8565b6040518363ffffffff1660e01b8152600401610957929190611281565b602060405180830381600087803b15801561097157600080fd5b505af1158015610985573d6000803e3d6000fd5b505050506040513d601f19601f820116820180604052508101906109a991906111d8565b505050565b60005473ffffffffffffffffffffffffffffffffffffffff1690565b73ffffffffffffffffffffffffffffffffffffffff811660009081526008602052604081208054421015610a02576000915050610387565b8054600090610a12904290611096565b90506000610a238262015180611086565b600284015490915062010000900461ffff16811015610a485760009350505050610387565b600283015461ffff168110610a64575050600101549050610387565b6002830154600090610a7d9061ffff16620151806110a2565b90506000610a9882866001015461108690919063ffffffff16565b90506000610aa682866110a2565b965061038795505050505050565b73ffffffffffffffffffffffffffffffffffffffff1660009081526008602052604090206003015490565b6000610aea82610f64565b905060008111610b0c5760405162461bcd60e51b81526004016103c390611532565b73ffffffffffffffffffffffffffffffffffffffff821660009081526008602052604090206003810154610b4090836110ae565b60038201556007546040517fa9059cbb00000000000000000000000000000000000000000000000000000000815273ffffffffffffffffffffffffffffffffffffffff9091169063a9059cbb90610b9d9086908690600401611281565b602060405180830381600087803b158015610bb757600080fd5b505af1158015610bcb573d6000803e3d6000fd5b505050506040513d601f19601f82011682018060405250810190610bef91906111d8565b610c0b5760405162461bcd60e51b81526004016103c39061158f565b604051829073ffffffffffffffffffffffffffffffffffffffff8516907fc6cbb4aa8681b18644bf64921eea8f2b9f44cbd58d64fc07a110bfccc203829690600090a3505050565b60086020526000908152604090208054600182015460028301546003909301549192909161ffff80831692620100009004169085565b60035461ffff1681565b60055481565b610ca1611092565b73ffffffffffffffffffffffffffffffffffffffff16610cbf6109ae565b73ffffffffffffffffffffffffffffffffffffffff1614610cf25760405162461bcd60e51b81526004016103c390611703565b73ffffffffffffffffffffffffffffffffffffffff8116610d255760405162461bcd60e51b81526004016103c39061141b565b6000805460405173ffffffffffffffffffffffffffffffffffffffff808516939216917f8be0079c531659141344cd1fd0a4f28419497f9722a3daafe3b4186f6b6457e091a3600080547fffffffffffffffffffffffff00000000000000000000000000000000000000001673ffffffffffffffffffffffffffffffffffffffff92909216919091179055565b60065481565b60075473ffffffffffffffffffffffffffffffffffffffff1681565b610ddc611092565b73ffffffffffffffffffffffffffffffffffffffff16610dfa6109ae565b73ffffffffffffffffffffffffffffffffffffffff1614610e2d5760405162461bcd60e51b81526004016103c390611703565b85851015610e4d5760405162461bcd60e51b81526004016103c390611649565b83831015610e6d5760405162461bcd60e51b81526004016103c3906112a7565b60008261ffff1611610e915760405162461bcd60e51b81526004016103c390611478565b6123a58261ffff161115610eb75760405162461bcd60e51b81526004016103c3906115ec565b6001869055600285905560048490556005839055600380547fffffffffffffffffffffffffffffffffffffffffffffffffffffffffffff00001661ffff841617905560068190556040517fa730c411f92480f5f3749019582193fbd48a9c52390039dc3072e17bda739cdc90610f38908890889088908890889088906118ec565b60405180910390a1505050505050565b60095473ffffffffffffffffffffffffffffffffffffffff1681565b73ffffffffffffffffffffffffffffffffffffffff811660009081526008602052604081208054421015610f9c576000915050610387565b8054600090610fac904290611096565b90506000610fbd8262015180611086565b600284015490915062010000900461ffff16811015610fe25760009350505050610387565b600283015461ffff16811061101a57600061100e8460030154856001015461109690919063ffffffff16565b94506103879350505050565b60028301546000906110339061ffff16620151806110a2565b9050600061104e82866001015461108690919063ffffffff16565b9050600061105c82866110a2565b9050600061107787600301548361109690919063ffffffff16565b97506103879650505050505050565b600061075e8284611930565b3390565b600061075e82846119a6565b600061075e8284611969565b600061075e8284611918565b6040518060a001604052806000815260200160008152602001600061ffff168152602001600061ffff168152602001600081525090565b803573ffffffffffffffffffffffffffffffffffffffff8116811461038757600080fd5b803561ffff8116811461038757600080fd5b600060208284031215611138578081fd5b61075e826110f1565b60008060008060808587031215611156578283fd5b61115f856110f1565b935061116d602086016110f1565b93969395505050506040820135916060013590565b600080600080600060a08688031215611199578081fd5b6111a2866110f1565b945060208601359350604086013592506111be60608701611115565b91506111cc60808701611115565b90509295509295909350565b6000602082840312156111e9578081fd5b8151801515811461075e578182fd5b600060208284031215611209578081fd5b5051919050565b60008060008060008060c08789031215611228578081fd5b8635955060208701359450604087013593506060870135925061124d60808801611115565b915060a087013590509295509295509295565b73ffffffffffffffffffffffffffffffffffffffff91909116815260200190565b73ffffffffffffffffffffffffffffffffffffffff929092168252602082015260400190565b6020808252603c908201527f52657761726456657374696e673a20656c696769626c65456e64426c6f636b2060408201527f6c657373207468616e20656c696769626c655374617274426c6f636b00000000606082015260800190565b6020808252603e908201527f52657761726456657374696e673a3a616464546f6b656e4772616e743a20677260408201527f616e7420616c72656164792065786973747320666f72206163636f756e740000606082015260800190565b60208082526039908201527f52657761726456657374696e673a3a616464546f6b656e4772616e743a20647560408201527f726174696f6e206d6f7265207468616e20323520796561727300000000000000606082015260800190565b60208082526031908201527f52657761726456657374696e673a3a616464546f6b656e4772616e743a206e6f60408201527f74206f776e6572206f722063616c6c6572000000000000000000000000000000606082015260800190565b60208082526026908201527f4f776e61626c653a206e6577206f776e657220697320746865207a65726f206160408201527f6464726573730000000000000000000000000000000000000000000000000000606082015260800190565b60208082526023908201527f52657761726456657374696e673a206475726174696f6e206d7573742062652060408201527f3e20300000000000000000000000000000000000000000000000000000000000606082015260800190565b6020808252602e908201527f52657761726456657374696e673a3a616464546f6b656e4772616e743a20647560408201527f726174696f6e203c20636c696666000000000000000000000000000000000000606082015260800190565b6020808252602d908201527f52657761726456657374696e673a3a636c61696d5665737465643a20616d6f7560408201527f6e74566573746564206973203000000000000000000000000000000000000000606082015260800190565b6020808252602b908201527f52657761726456657374696e673a3a636c61696d5665737465643a207472616e60408201527f73666572206661696c6564000000000000000000000000000000000000000000606082015260800190565b6020808252602a908201527f52657761726456657374696e673a206475726174696f6e206d6f72652074686160408201527f6e20323520796561727300000000000000000000000000000000000000000000606082015260800190565b6020808252602c908201527f52657761726456657374696e673a207374617274426c6f636b206c657373207460408201527f68616e20656e64426c6f636b0000000000000000000000000000000000000000606082015260800190565b60208082526032908201527f52657761726456657374696e673a3a616464546f6b656e4772616e743a20647560408201527f726174696f6e206d757374206265203e20300000000000000000000000000000606082015260800190565b6020808252818101527f4f776e61626c653a2063616c6c6572206973206e6f7420746865206f776e6572604082015260600190565b60208082526021908201527f52657761726456657374696e673a3a6f6e4d696e743a206e6f742063616c6c6560408201527f7200000000000000000000000000000000000000000000000000000000000000606082015260800190565b60208082526034908201527f52657761726456657374696e673a3a616464546f6b656e4772616e743a20616d60408201527f6f756e74566573746564506572446179203e2030000000000000000000000000606082015260800190565b60208082526036908201527f52657761726456657374696e673a3a616464546f6b656e4772616e743a20636c60408201527f696666206d6f7265207468616e20313020796561727300000000000000000000606082015260800190565b600060a0820190508251825260208301516020830152604083015161ffff808216604085015280606086015116606085015250506080830151608083015292915050565b61ffff91909116815260200190565b90815260200190565b92835261ffff918216602084015216604082015260600190565b948552602085019390935261ffff9182166040850152166060830152608082015260a00190565b95865260208601949094526040850192909252606084015261ffff16608083015260a082015260c00190565b6000821982111561192b5761192b6119bd565b500190565b600082611964577f4e487b710000000000000000000000000000000000000000000000000000000081526012600452602481fd5b500490565b6000817fffffffffffffffffffffffffffffffffffffffffffffffffffffffffffffffff04831182151516156119a1576119a16119bd565b500290565b6000828210156119b8576119b86119bd565b500390565b7f4e487b7100000000000000000000000000000000000000000000000000000000600052601160045260246000fdfea264697066735822122072f24f60244c659df6521f3f75212d3d6cd268f83253b265a18a1ebeb991a0e164736f6c6343000801003352657761726456657374696e673a3a636f6e7374727563746f723a206d757374",
  "devdoc": {
    "details": "The vesting contract for the initial mint rewards",
    "kind": "dev",
    "methods": {
      "addTokenGrant(address,uint256,uint256,uint16,uint16)": {
        "params": {
          "amount": "The amount of tokens being granted",
          "recipient": "The address that is receiving the grant",
          "startTime": "The unix timestamp when the grant will start",
          "vestingCliffInDays": "The vesting cliff duration in days",
          "vestingDurationInDays": "The vesting period in days"
        }
      },
      "calculateGrantClaim(address)": {
        "details": "Due to rounding errors once grant duration is reached, returns the entire left grant amountReturns 0 if cliff has not been reached",
        "params": {
          "recipient": "The address that has a grant"
        },
        "returns": {
          "_0": "The amount recipient can claim"
        }
      },
      "claimVestedTokens(address)": {
        "details": "Errors if no tokens have vestedIt is advised recipients check they are entitled to claim via `calculateGrantClaim` before calling this",
        "params": {
          "recipient": "The address that has a grant"
        }
      },
      "claimedBalance(address)": {
        "params": {
          "recipient": "The address that has a grant"
        },
        "returns": {
          "_0": "the number of claimed tokens by `recipient`"
        }
      },
      "constructor": {
        "params": {
          "_caller": "Address of an additional allowed caller of addTokenGrant",
          "_rewardToken": "Address of reward token"
        }
      },
      "getTokenGrant(address)": {
        "params": {
          "recipient": "The address that has a grant"
        },
        "returns": {
          "_0": "the grant"
        }
      },
      "onMint(address,address,uint256,uint256)": {
        "details": "Check if a reward has been earned and if so start vesting Requirements: - the caller must be {caller}"
      },
      "owner()": {
        "details": "Returns the address of the current owner."
      },
      "renounceOwnership()": {
        "details": "Leaves the contract without owner. It will not be possible to call `onlyOwner` functions anymore. Can only be called by the current owner. NOTE: Renouncing ownership will leave the contract without an owner, thereby removing any functionality that is only available to the owner."
      },
      "rescue(address)": {
        "details": "Rescue any ERC-20 token the contract may hold",
        "params": {
          "_token": "ERC-20 token address Requirements: - the caller must be owner"
        }
      },
      "setRewardParameters(uint256,uint256,uint256,uint256,uint16,uint256)": {
        "details": "Sets current reward parameters Requirements: - the caller must be owner"
      },
      "tokensVestedPerDay(address)": {
        "params": {
          "recipient": "The address that has a grant"
        },
        "returns": {
          "_0": "Number of tokens that will vest per day"
        }
      },
      "transferOwnership(address)": {
        "details": "Transfers ownership of the contract to a new account (`newOwner`). Can only be called by the current owner."
      },
      "vestedBalance(address)": {
        "details": "Returns 0 if cliff has not been reached",
        "params": {
          "recipient": "The address that has a grant"
        },
        "returns": {
          "_0": "Total vested balance (claimed + unclaimed)"
        }
      }
    },
    "stateVariables": {
      "SECONDS_PER_DAY": {
        "details": "Used to translate vesting periods specified in days to seconds"
      }
    },
    "title": "RewardVesting",
    "version": 1
  },
  "userdoc": {
    "events": {
      "GrantAdded(address,uint256,uint256,uint16,uint16)": {
        "notice": "Event emitted when a new grant is created"
      },
      "GrantTokensClaimed(address,uint256)": {
        "notice": "Event emitted when tokens are claimed by a recipient from a grant"
      },
      "RewardParametersChanged(uint256,uint256,uint256,uint256,uint16,uint256)": {
        "notice": "Emitted when reward parameters ({rewardEarnStartBlock}, rewardEarnEndBlock}, {rewardEligibleStartBlock}, {rewardEligibleEndBlock}, {rewardVestingDuration}, {rewardAmount}) are changed"
      }
    },
    "kind": "user",
    "methods": {
      "addTokenGrant(address,uint256,uint256,uint16,uint16)": {
        "notice": "Add a new token grant"
      },
      "calculateGrantClaim(address)": {
        "notice": "Calculate the vested and unclaimed tokens available for `recipient` to claim"
      },
      "caller()": {
        "notice": "Caller address that is allowed to add grants (in addition to owner)"
      },
      "claimVestedTokens(address)": {
        "notice": "Allows a grant recipient to claim their vested tokens"
      },
      "claimedBalance(address)": {
        "notice": "The balance claimed by `recipient`"
      },
      "constructor": {
        "notice": "Construct a new Vesting contract"
      },
      "getTokenGrant(address)": {
        "notice": "Get token grant for recipient"
      },
      "rewardAmount()": {
        "notice": "Total rewards per mint"
      },
      "rewardEarnEndBlock()": {
        "notice": "End block of rewards"
      },
      "rewardEarnStartBlock()": {
        "notice": "Start block of rewards"
      },
      "rewardEligibleEndBlock()": {
        "notice": "End block of NFTs eligibile for rewards"
      },
      "rewardEligibleStartBlock()": {
        "notice": "Start block of NFTs eligible for rewards"
      },
      "rewardToken()": {
        "notice": "Address of reward token"
      },
      "rewardVestingDuration()": {
        "notice": "Reward vesting duration in days"
      },
      "tokenGrants(address)": {
        "notice": "Mapping of address to grants"
      },
      "tokensVestedPerDay(address)": {
        "notice": "Calculate the number of tokens that will vest per day for the given recipient"
      },
      "vestedBalance(address)": {
        "notice": "Calculate the vested (claimed + unclaimed) tokens for `recipient`"
      }
    },
    "version": 1
  },
  "storageLayout": {
    "storage": [
      {
        "astId": 5449,
        "contract": "contracts/RewardVesting.sol:RewardVesting",
        "label": "_owner",
        "offset": 0,
        "slot": "0",
        "type": "t_address"
      },
      {
        "astId": 4397,
        "contract": "contracts/RewardVesting.sol:RewardVesting",
        "label": "rewardEarnStartBlock",
        "offset": 0,
        "slot": "1",
        "type": "t_uint256"
      },
      {
        "astId": 4400,
        "contract": "contracts/RewardVesting.sol:RewardVesting",
        "label": "rewardEarnEndBlock",
        "offset": 0,
        "slot": "2",
        "type": "t_uint256"
      },
      {
        "astId": 4403,
        "contract": "contracts/RewardVesting.sol:RewardVesting",
        "label": "rewardVestingDuration",
        "offset": 0,
        "slot": "3",
        "type": "t_uint16"
      },
      {
        "astId": 4406,
        "contract": "contracts/RewardVesting.sol:RewardVesting",
        "label": "rewardEligibleStartBlock",
        "offset": 0,
        "slot": "4",
        "type": "t_uint256"
      },
      {
        "astId": 4409,
        "contract": "contracts/RewardVesting.sol:RewardVesting",
        "label": "rewardEligibleEndBlock",
        "offset": 0,
        "slot": "5",
        "type": "t_uint256"
      },
      {
        "astId": 4412,
        "contract": "contracts/RewardVesting.sol:RewardVesting",
        "label": "rewardAmount",
        "offset": 0,
        "slot": "6",
        "type": "t_uint256"
      },
      {
        "astId": 4416,
        "contract": "contracts/RewardVesting.sol:RewardVesting",
        "label": "rewardToken",
        "offset": 0,
        "slot": "7",
        "type": "t_contract(IERC20)1804"
      },
      {
        "astId": 4433,
        "contract": "contracts/RewardVesting.sol:RewardVesting",
        "label": "tokenGrants",
        "offset": 0,
        "slot": "8",
        "type": "t_mapping(t_address,t_struct(Grant)4427_storage)"
      },
      {
        "astId": 4436,
        "contract": "contracts/RewardVesting.sol:RewardVesting",
        "label": "caller",
        "offset": 0,
        "slot": "9",
        "type": "t_address"
      }
    ],
    "types": {
      "t_address": {
        "encoding": "inplace",
        "label": "address",
        "numberOfBytes": "20"
      },
      "t_contract(IERC20)1804": {
        "encoding": "inplace",
        "label": "contract IERC20",
        "numberOfBytes": "20"
      },
      "t_mapping(t_address,t_struct(Grant)4427_storage)": {
        "encoding": "mapping",
        "key": "t_address",
        "label": "mapping(address => struct RewardVesting.Grant)",
        "numberOfBytes": "32",
        "value": "t_struct(Grant)4427_storage"
      },
      "t_struct(Grant)4427_storage": {
        "encoding": "inplace",
        "label": "struct RewardVesting.Grant",
        "members": [
          {
            "astId": 4418,
            "contract": "contracts/RewardVesting.sol:RewardVesting",
            "label": "startTime",
            "offset": 0,
            "slot": "0",
            "type": "t_uint256"
          },
          {
            "astId": 4420,
            "contract": "contracts/RewardVesting.sol:RewardVesting",
            "label": "amount",
            "offset": 0,
            "slot": "1",
            "type": "t_uint256"
          },
          {
            "astId": 4422,
            "contract": "contracts/RewardVesting.sol:RewardVesting",
            "label": "vestingDuration",
            "offset": 0,
            "slot": "2",
            "type": "t_uint16"
          },
          {
            "astId": 4424,
            "contract": "contracts/RewardVesting.sol:RewardVesting",
            "label": "vestingCliff",
            "offset": 2,
            "slot": "2",
            "type": "t_uint16"
          },
          {
            "astId": 4426,
            "contract": "contracts/RewardVesting.sol:RewardVesting",
            "label": "totalClaimed",
            "offset": 0,
            "slot": "3",
            "type": "t_uint256"
          }
        ],
        "numberOfBytes": "128"
      },
      "t_uint16": {
        "encoding": "inplace",
        "label": "uint16",
        "numberOfBytes": "2"
      },
      "t_uint256": {
        "encoding": "inplace",
        "label": "uint256",
        "numberOfBytes": "32"
      }
    }
  }
}