{
  "address": "0x1E507B29af0510fCDC45eaeE71A9C96682ca7feD",
  "abi": [
    {
      "inputs": [
        {
          "internalType": "address",
          "name": "_admin",
          "type": "address"
        },
        {
          "internalType": "address",
          "name": "_rewardDistribution",
          "type": "address"
        },
        {
          "internalType": "address",
          "name": "_rewardToken",
          "type": "address"
        },
        {
          "internalType": "address",
          "name": "_stakingToken",
          "type": "address"
        }
      ],
      "stateMutability": "nonpayable",
      "type": "constructor"
    },
    {
      "anonymous": false,
      "inputs": [
        {
          "indexed": false,
          "internalType": "address",
          "name": "token",
          "type": "address"
        },
        {
          "indexed": false,
          "internalType": "uint256",
          "name": "amount",
          "type": "uint256"
        }
      ],
      "name": "Recovered",
      "type": "event"
    },
    {
      "anonymous": false,
      "inputs": [
        {
          "indexed": false,
          "internalType": "uint256",
          "name": "reward",
          "type": "uint256"
        }
      ],
      "name": "RewardAdded",
      "type": "event"
    },
    {
      "anonymous": false,
      "inputs": [
        {
          "indexed": true,
          "internalType": "address",
          "name": "user",
          "type": "address"
        },
        {
          "indexed": false,
          "internalType": "uint256",
          "name": "reward",
          "type": "uint256"
        }
      ],
      "name": "RewardPaid",
      "type": "event"
    },
    {
      "anonymous": false,
      "inputs": [
        {
          "indexed": true,
          "internalType": "bytes32",
          "name": "role",
          "type": "bytes32"
        },
        {
          "indexed": true,
          "internalType": "bytes32",
          "name": "previousAdminRole",
          "type": "bytes32"
        },
        {
          "indexed": true,
          "internalType": "bytes32",
          "name": "newAdminRole",
          "type": "bytes32"
        }
      ],
      "name": "RoleAdminChanged",
      "type": "event"
    },
    {
      "anonymous": false,
      "inputs": [
        {
          "indexed": true,
          "internalType": "bytes32",
          "name": "role",
          "type": "bytes32"
        },
        {
          "indexed": true,
          "internalType": "address",
          "name": "account",
          "type": "address"
        },
        {
          "indexed": true,
          "internalType": "address",
          "name": "sender",
          "type": "address"
        }
      ],
      "name": "RoleGranted",
      "type": "event"
    },
    {
      "anonymous": false,
      "inputs": [
        {
          "indexed": true,
          "internalType": "bytes32",
          "name": "role",
          "type": "bytes32"
        },
        {
          "indexed": true,
          "internalType": "address",
          "name": "account",
          "type": "address"
        },
        {
          "indexed": true,
          "internalType": "address",
          "name": "sender",
          "type": "address"
        }
      ],
      "name": "RoleRevoked",
      "type": "event"
    },
    {
      "anonymous": false,
      "inputs": [
        {
          "indexed": true,
          "internalType": "address",
          "name": "user",
          "type": "address"
        },
        {
          "indexed": false,
          "internalType": "uint256",
          "name": "amount",
          "type": "uint256"
        }
      ],
      "name": "Staked",
      "type": "event"
    },
    {
      "anonymous": false,
      "inputs": [
        {
          "indexed": true,
          "internalType": "address",
          "name": "user",
          "type": "address"
        },
        {
          "indexed": false,
          "internalType": "uint256",
          "name": "amount",
          "type": "uint256"
        }
      ],
      "name": "Withdrawn",
      "type": "event"
    },
    {
      "inputs": [],
      "name": "DEFAULT_ADMIN_ROLE",
      "outputs": [
        {
          "internalType": "bytes32",
          "name": "",
          "type": "bytes32"
        }
      ],
      "stateMutability": "view",
      "type": "function"
    },
    {
      "inputs": [],
      "name": "DISTRIBUTION_ASSIGNER_ROLE",
      "outputs": [
        {
          "internalType": "bytes32",
          "name": "",
          "type": "bytes32"
        }
      ],
      "stateMutability": "view",
      "type": "function"
    },
    {
      "inputs": [],
      "name": "DURATION",
      "outputs": [
        {
          "internalType": "uint256",
          "name": "",
          "type": "uint256"
        }
      ],
      "stateMutability": "view",
      "type": "function"
    },
    {
      "inputs": [],
      "name": "RECOVER_ROLE",
      "outputs": [
        {
          "internalType": "bytes32",
          "name": "",
          "type": "bytes32"
        }
      ],
      "stateMutability": "view",
      "type": "function"
    },
    {
      "inputs": [
        {
          "internalType": "address",
          "name": "account",
          "type": "address"
        }
      ],
      "name": "balanceOf",
      "outputs": [
        {
          "internalType": "uint256",
          "name": "",
          "type": "uint256"
        }
      ],
      "stateMutability": "view",
      "type": "function"
    },
    {
      "inputs": [
        {
          "internalType": "address",
          "name": "account",
          "type": "address"
        }
      ],
      "name": "earned",
      "outputs": [
        {
          "internalType": "uint256",
          "name": "",
          "type": "uint256"
        }
      ],
      "stateMutability": "view",
      "type": "function"
    },
    {
      "inputs": [],
      "name": "exit",
      "outputs": [],
      "stateMutability": "nonpayable",
      "type": "function"
    },
    {
      "inputs": [],
      "name": "getReward",
      "outputs": [],
      "stateMutability": "nonpayable",
      "type": "function"
    },
    {
      "inputs": [],
      "name": "getRewardForDuration",
      "outputs": [
        {
          "internalType": "uint256",
          "name": "",
          "type": "uint256"
        }
      ],
      "stateMutability": "view",
      "type": "function"
    },
    {
      "inputs": [
        {
          "internalType": "bytes32",
          "name": "role",
          "type": "bytes32"
        }
      ],
      "name": "getRoleAdmin",
      "outputs": [
        {
          "internalType": "bytes32",
          "name": "",
          "type": "bytes32"
        }
      ],
      "stateMutability": "view",
      "type": "function"
    },
    {
      "inputs": [
        {
          "internalType": "bytes32",
          "name": "role",
          "type": "bytes32"
        },
        {
          "internalType": "address",
          "name": "account",
          "type": "address"
        }
      ],
      "name": "grantRole",
      "outputs": [],
      "stateMutability": "nonpayable",
      "type": "function"
    },
    {
      "inputs": [
        {
          "internalType": "bytes32",
          "name": "role",
          "type": "bytes32"
        },
        {
          "internalType": "address",
          "name": "account",
          "type": "address"
        }
      ],
      "name": "hasRole",
      "outputs": [
        {
          "internalType": "bool",
          "name": "",
          "type": "bool"
        }
      ],
      "stateMutability": "view",
      "type": "function"
    },
    {
      "inputs": [],
      "name": "lastTimeRewardApplicable",
      "outputs": [
        {
          "internalType": "uint256",
          "name": "",
          "type": "uint256"
        }
      ],
      "stateMutability": "view",
      "type": "function"
    },
    {
      "inputs": [],
      "name": "lastUpdateTime",
      "outputs": [
        {
          "internalType": "uint256",
          "name": "",
          "type": "uint256"
        }
      ],
      "stateMutability": "view",
      "type": "function"
    },
    {
      "inputs": [
        {
          "internalType": "uint256",
          "name": "reward",
          "type": "uint256"
        }
      ],
      "name": "notifyRewardAmount",
      "outputs": [],
      "stateMutability": "nonpayable",
      "type": "function"
    },
    {
      "inputs": [],
      "name": "periodFinish",
      "outputs": [
        {
          "internalType": "uint256",
          "name": "",
          "type": "uint256"
        }
      ],
      "stateMutability": "view",
      "type": "function"
    },
    {
      "inputs": [
        {
          "internalType": "address",
          "name": "tokenAddress",
          "type": "address"
        },
        {
          "internalType": "uint256",
          "name": "tokenAmount",
          "type": "uint256"
        }
      ],
      "name": "recoverERC20",
      "outputs": [],
      "stateMutability": "nonpayable",
      "type": "function"
    },
    {
      "inputs": [
        {
          "internalType": "bytes32",
          "name": "role",
          "type": "bytes32"
        },
        {
          "internalType": "address",
          "name": "account",
          "type": "address"
        }
      ],
      "name": "renounceRole",
      "outputs": [],
      "stateMutability": "nonpayable",
      "type": "function"
    },
    {
      "inputs": [
        {
          "internalType": "bytes32",
          "name": "role",
          "type": "bytes32"
        },
        {
          "internalType": "address",
          "name": "account",
          "type": "address"
        }
      ],
      "name": "revokeRole",
      "outputs": [],
      "stateMutability": "nonpayable",
      "type": "function"
    },
    {
      "inputs": [],
      "name": "rewardDistribution",
      "outputs": [
        {
          "internalType": "address",
          "name": "",
          "type": "address"
        }
      ],
      "stateMutability": "view",
      "type": "function"
    },
    {
      "inputs": [],
      "name": "rewardPerToken",
      "outputs": [
        {
          "internalType": "uint256",
          "name": "",
          "type": "uint256"
        }
      ],
      "stateMutability": "view",
      "type": "function"
    },
    {
      "inputs": [],
      "name": "rewardPerTokenStored",
      "outputs": [
        {
          "internalType": "uint256",
          "name": "",
          "type": "uint256"
        }
      ],
      "stateMutability": "view",
      "type": "function"
    },
    {
      "inputs": [],
      "name": "rewardRate",
      "outputs": [
        {
          "internalType": "uint256",
          "name": "",
          "type": "uint256"
        }
      ],
      "stateMutability": "view",
      "type": "function"
    },
    {
      "inputs": [],
      "name": "rewardToken",
      "outputs": [
        {
          "internalType": "contract IERC20",
          "name": "",
          "type": "address"
        }
      ],
      "stateMutability": "view",
      "type": "function"
    },
    {
      "inputs": [
        {
          "internalType": "address",
          "name": "",
          "type": "address"
        }
      ],
      "name": "rewards",
      "outputs": [
        {
          "internalType": "uint256",
          "name": "",
          "type": "uint256"
        }
      ],
      "stateMutability": "view",
      "type": "function"
    },
    {
      "inputs": [
        {
          "internalType": "address",
          "name": "_rewardDistribution",
          "type": "address"
        }
      ],
      "name": "setRewardDistribution",
      "outputs": [],
      "stateMutability": "nonpayable",
      "type": "function"
    },
    {
      "inputs": [
        {
          "internalType": "uint256",
          "name": "amount",
          "type": "uint256"
        }
      ],
      "name": "stake",
      "outputs": [],
      "stateMutability": "nonpayable",
      "type": "function"
    },
    {
      "inputs": [],
      "name": "stakeToken",
      "outputs": [
        {
          "internalType": "contract IERC20",
          "name": "",
          "type": "address"
        }
      ],
      "stateMutability": "view",
      "type": "function"
    },
    {
      "inputs": [
        {
          "internalType": "bytes4",
          "name": "interfaceId",
          "type": "bytes4"
        }
      ],
      "name": "supportsInterface",
      "outputs": [
        {
          "internalType": "bool",
          "name": "",
          "type": "bool"
        }
      ],
      "stateMutability": "view",
      "type": "function"
    },
    {
      "inputs": [],
      "name": "totalSupply",
      "outputs": [
        {
          "internalType": "uint256",
          "name": "",
          "type": "uint256"
        }
      ],
      "stateMutability": "view",
      "type": "function"
    },
    {
      "inputs": [
        {
          "internalType": "address",
          "name": "",
          "type": "address"
        }
      ],
      "name": "userRewardPerTokenPaid",
      "outputs": [
        {
          "internalType": "uint256",
          "name": "",
          "type": "uint256"
        }
      ],
      "stateMutability": "view",
      "type": "function"
    },
    {
      "inputs": [
        {
          "internalType": "uint256",
          "name": "amount",
          "type": "uint256"
        }
      ],
      "name": "withdraw",
      "outputs": [],
      "stateMutability": "nonpayable",
      "type": "function"
    }
  ],
  "transactionHash": "0x169f70ec5c04c9d88db47978d2ca3a392a4f3d61d3857d1ab3d772a2a7880419",
  "args": [
    "0x761496379064d3D49Da3b623017CB00421cc8980",
    "0x761496379064d3D49Da3b623017CB00421cc8980",
    "0x04AE4aE7F9af802DE5A2Da9561948F6f24D4b043",
    "0x7ceB23fD6bC0adD59E62ac25578270cFf1b9f619"
  ],
  "solcInputHash": "a19a106491c6d4d9251b2084b4be963f",
  "bytecode": "0x6080604052600060045560006005553480156200001b57600080fd5b5060405162001eff38038062001eff8339810160408190526200003e91620001d0565b836200006b7f32d611cddb9575a9b749d29624cab333eb23b65b17d0995589b5ce4fba0af78782620000ec565b50600180546001600160a01b038086166001600160a01b031992831617909255600280548584169083161790556003805492841692909116919091179055620000b6600085620000ec565b620000e27f62b337eaefec74dadf1a62e856bf9db4f14a0f27d4f48156a95a9f98e7d5e06685620000ec565b505050506200022c565b620000f88282620000fc565b5050565b62000108828262000186565b620000f8576000828152602081815260408083206001600160a01b03851684529091529020805460ff1916600117905562000142620001af565b6001600160a01b0316816001600160a01b0316837f2f8788117e7eff1d82e926ec794901d17c78024a50270940304540a733656f0d60405160405180910390a45050565b6000918252602082815260408084206001600160a01b0393909316845291905290205460ff1690565b3390565b80516001600160a01b0381168114620001cb57600080fd5b919050565b60008060008060808587031215620001e6578384fd5b620001f185620001b3565b93506200020160208601620001b3565b92506200021160408601620001b3565b91506200022160608601620001b3565b905092959194509250565b611cc3806200023c6000396000f3fe608060405234801561001057600080fd5b50600436106101ef5760003560e01c80637b0a47ee1161010f578063c8f33c91116100a2578063df136d6511610071578063df136d65146103ab578063e9fad8ee146103b3578063ebe2b12b146103bb578063f7c618c1146103c3576101ef565b8063c8f33c9114610380578063cd3daf9d14610388578063d2ef3d0f14610390578063d547741f14610398576101ef565b806391d14854116100de57806391d148541461034a578063939bcbc91461035d578063a217fddf14610365578063a694fc3a1461036d576101ef565b80637b0a47ee1461031457806380faa57d1461031c5780638980f11f146103245780638b87634714610337576101ef565b8063248a9ca3116101875780633c6b16ab116101565780633c6b16ab146102de5780633d18b912146102f157806351ed6a30146102f957806370a0823114610301576101ef565b8063248a9ca3146102925780632e1a7d4d146102a55780632f2ff15d146102b857806336568abe146102cb576101ef565b8063101114cf116101c3578063101114cf1461026557806318160ddd1461027a5780631be05289146102825780631c1f78eb1461028a576101ef565b80628cc262146101f457806301ffc9a71461021d5780630700037d1461023d5780630d68b76114610250575b600080fd5b6102076102023660046113c2565b6103cb565b604051610214919061155f565b60405180910390f35b61023061022b366004611468565b610448565b6040516102149190611554565b61020761024b3660046113c2565b61049e565b61026361025e3660046113c2565b6104b0565b005b61026d610548565b60405161021491906114dc565b610207610564565b61020761056b565b610207610572565b6102076102a0366004611425565b61058a565b6102636102b3366004611425565b61059f565b6102636102c636600461143d565b6106e9565b6102636102d936600461143d565b610727565b6102636102ec366004611425565b610783565b6102636109d7565b61026d610adb565b61020761030f3660046113c2565b610af7565b610207610b1f565b610207610b25565b6102636103323660046113dc565b610b33565b6102076103453660046113c2565b610c57565b61023061035836600461143d565b610c69565b610207610c9f565b610207610cc3565b61026361037b366004611425565b610cc8565b610207610e07565b610207610e0d565b610207610e5b565b6102636103a636600461143d565b610e7f565b610207610ea7565b610263610ead565b610207610ec3565b61026d610ec9565b73ffffffffffffffffffffffffffffffffffffffff81166000908152600960209081526040808320546008909252822054610440919061043a90670de0b6b3a764000090610434906104259061041f610e0d565b90610ee5565b61042e88610af7565b90610ef8565b90610f04565b90610f10565b90505b919050565b60007fffffffff0000000000000000000000000000000000000000000000000000000082167f7965db0b000000000000000000000000000000000000000000000000000000001480610440575061044082610f1c565b60096020526000908152604090205481565b6104dc7f32d611cddb9575a9b749d29624cab333eb23b65b17d0995589b5ce4fba0af787610358610f66565b6105015760405162461bcd60e51b81526004016104f8906116f6565b60405180910390fd5b600180547fffffffffffffffffffffffff00000000000000000000000000000000000000001673ffffffffffffffffffffffffffffffffffffffff92909216919091179055565b60015473ffffffffffffffffffffffffffffffffffffffff1681565b600a545b90565b6212750081565b6005546000906105859062127500610ef8565b905090565b60009081526020819052604090206001015490565b336105a8610e0d565b6007556105b3610b25565b60065573ffffffffffffffffffffffffffffffffffffffff811615610614576105db816103cb565b73ffffffffffffffffffffffffffffffffffffffff82166000908152600960209081526040808320939093556007546008909152919020555b600082116106345760405162461bcd60e51b81526004016104f8906118b6565b600a546106419083610ee5565b600a55336000908152600b602052604090205461065e9083610ee5565b336000818152600b60205260409020919091556003546106979173ffffffffffffffffffffffffffffffffffffffff9091169084610f6a565b3373ffffffffffffffffffffffffffffffffffffffff167f7084f5476618d8e60b11ef0d7d3f06914655adb8793e28ff7f018d4c76d505d5836040516106dd919061155f565b60405180910390a25050565b6106fd6106f58361058a565b610358610f66565b6107195760405162461bcd60e51b81526004016104f8906115b9565b6107238282611010565b5050565b61072f610f66565b73ffffffffffffffffffffffffffffffffffffffff168173ffffffffffffffffffffffffffffffffffffffff16146107795760405162461bcd60e51b81526004016104f890611b30565b61072382826110da565b60015473ffffffffffffffffffffffffffffffffffffffff166107a4610f66565b73ffffffffffffffffffffffffffffffffffffffff16146107d75760405162461bcd60e51b81526004016104f890611996565b60006107e1610e0d565b6007556107ec610b25565b60065573ffffffffffffffffffffffffffffffffffffffff81161561084d57610814816103cb565b73ffffffffffffffffffffffffffffffffffffffff82166000908152600960209081526040808320939093556007546008909152919020555b600454421061086b576108638262127500610f04565b6005556108ad565b60045460009061087b9042610ee5565b9050600061089460055483610ef890919063ffffffff16565b90506108a7621275006104348684610f10565b60055550505b6002546040517f70a0823100000000000000000000000000000000000000000000000000000000815260009173ffffffffffffffffffffffffffffffffffffffff16906370a08231906109049030906004016114dc565b60206040518083038186803b15801561091c57600080fd5b505afa158015610930573d6000803e3d6000fd5b505050506040513d601f19601f8201168201806040525081019061095491906114a8565b90506109638162127500610f04565b60055411156109845760405162461bcd60e51b81526004016104f890611616565b4260068190556109979062127500610f10565b6004556040517fde88a922e0d3b88b24e9623efeb464919c6bf9f66857a65e2bfcf2ce87a9433d906109ca90859061155f565b60405180910390a1505050565b336109e0610e0d565b6007556109eb610b25565b60065573ffffffffffffffffffffffffffffffffffffffff811615610a4c57610a13816103cb565b73ffffffffffffffffffffffffffffffffffffffff82166000908152600960209081526040808320939093556007546008909152919020555b6000610a57336103cb565b905080156107235733600081815260096020526040812055600254610a959173ffffffffffffffffffffffffffffffffffffffff9091169083610f6a565b3373ffffffffffffffffffffffffffffffffffffffff167fe2403640ba68fed3a2f88b7557551d1993f84b99bb10ff833f0cf8db0c5e0486826040516106dd919061155f565b60035473ffffffffffffffffffffffffffffffffffffffff1681565b73ffffffffffffffffffffffffffffffffffffffff166000908152600b602052604090205490565b60055481565b6000610585426004546111a2565b610b5f7f62b337eaefec74dadf1a62e856bf9db4f14a0f27d4f48156a95a9f98e7d5e066610358610f66565b610b7b5760405162461bcd60e51b81526004016104f890611913565b60035473ffffffffffffffffffffffffffffffffffffffff83811691161415610bb65760405162461bcd60e51b81526004016104f890611aad565b60025473ffffffffffffffffffffffffffffffffffffffff83811691161415610bf15760405162461bcd60e51b81526004016104f8906117d6565b610c1a610bfc610f66565b73ffffffffffffffffffffffffffffffffffffffff84169083610f6a565b7f8c1256b8896378cd5044f80c202f9772b9d77dc85c8a6eb51967210b09bfaa288282604051610c4b92919061152e565b60405180910390a15050565b60086020526000908152604090205481565b60009182526020828152604080842073ffffffffffffffffffffffffffffffffffffffff93909316845291905290205460ff1690565b7f62b337eaefec74dadf1a62e856bf9db4f14a0f27d4f48156a95a9f98e7d5e06681565b600081565b33610cd1610e0d565b600755610cdc610b25565b60065573ffffffffffffffffffffffffffffffffffffffff811615610d3d57610d04816103cb565b73ffffffffffffffffffffffffffffffffffffffff82166000908152600960209081526040808320939093556007546008909152919020555b60008211610d5d5760405162461bcd60e51b81526004016104f890611699565b600a54610d6a9083610f10565b600a55336000908152600b6020526040902054610d879083610f10565b336000818152600b6020526040902091909155600354610dc19173ffffffffffffffffffffffffffffffffffffffff9091169030856111b8565b3373ffffffffffffffffffffffffffffffffffffffff167f9e71bc8eea02a63969f509818f2dafb9254532904319f9dbda79b67bd34a5f3d836040516106dd919061155f565b60065481565b6000610e17610564565b610e245750600754610568565b610585610e52610e32610564565b610434670de0b6b3a764000061042e60055461042e60065461041f610b25565b60075490610f10565b7f32d611cddb9575a9b749d29624cab333eb23b65b17d0995589b5ce4fba0af78781565b610e8b6106f58361058a565b6107795760405162461bcd60e51b81526004016104f890611859565b60075481565b610eb96102b333610af7565b610ec16109d7565b565b60045481565b60025473ffffffffffffffffffffffffffffffffffffffff1681565b6000610ef18284611c1b565b9392505050565b6000610ef18284611bde565b6000610ef18284611ba5565b6000610ef18284611b8d565b7fffffffff0000000000000000000000000000000000000000000000000000000081167f01ffc9a70000000000000000000000000000000000000000000000000000000014919050565b3390565b61100b8363a9059cbb60e01b8484604051602401610f8992919061152e565b604080517fffffffffffffffffffffffffffffffffffffffffffffffffffffffffffffffe08184030181529190526020810180517bffffffffffffffffffffffffffffffffffffffffffffffffffffffff167fffffffff00000000000000000000000000000000000000000000000000000000909316929092179091526111df565b505050565b61101a8282610c69565b6107235760008281526020818152604080832073ffffffffffffffffffffffffffffffffffffffff85168452909152902080547fffffffffffffffffffffffffffffffffffffffffffffffffffffffffffffff0016600117905561107c610f66565b73ffffffffffffffffffffffffffffffffffffffff168173ffffffffffffffffffffffffffffffffffffffff16837f2f8788117e7eff1d82e926ec794901d17c78024a50270940304540a733656f0d60405160405180910390a45050565b6110e48282610c69565b156107235760008281526020818152604080832073ffffffffffffffffffffffffffffffffffffffff85168452909152902080547fffffffffffffffffffffffffffffffffffffffffffffffffffffffffffffff00169055611144610f66565b73ffffffffffffffffffffffffffffffffffffffff168173ffffffffffffffffffffffffffffffffffffffff16837ff6391f5c32d9c69d2a47ea670b442974b53935d1edc7fd64eb21e047a839171b60405160405180910390a45050565b60008183106111b15781610ef1565b5090919050565b6111d9846323b872dd60e01b858585604051602401610f89939291906114fd565b50505050565b6000611241826040518060400160405280602081526020017f5361666545524332303a206c6f772d6c6576656c2063616c6c206661696c65648152508573ffffffffffffffffffffffffffffffffffffffff1661127b9092919063ffffffff16565b80519091501561100b578080602001905181019061125f9190611405565b61100b5760405162461bcd60e51b81526004016104f890611a50565b606061128a8484600085611292565b949350505050565b6060824710156112b45760405162461bcd60e51b81526004016104f890611779565b6112bd8561135f565b6112d95760405162461bcd60e51b81526004016104f890611a19565b6000808673ffffffffffffffffffffffffffffffffffffffff16858760405161130291906114c0565b60006040518083038185875af1925050503d806000811461133f576040519150601f19603f3d011682016040523d82523d6000602084013e611344565b606091505b5091509150611354828286611365565b979650505050505050565b3b151590565b60608315611374575081610ef1565b8251156113845782518084602001fd5b8160405162461bcd60e51b81526004016104f89190611568565b803573ffffffffffffffffffffffffffffffffffffffff8116811461044357600080fd5b6000602082840312156113d3578081fd5b610ef18261139e565b600080604083850312156113ee578081fd5b6113f78361139e565b946020939093013593505050565b600060208284031215611416578081fd5b81518015158114610ef1578182fd5b600060208284031215611436578081fd5b5035919050565b6000806040838503121561144f578182fd5b8235915061145f6020840161139e565b90509250929050565b600060208284031215611479578081fd5b81357fffffffff0000000000000000000000000000000000000000000000000000000081168114610ef1578182fd5b6000602082840312156114b9578081fd5b5051919050565b600082516114d2818460208701611c32565b9190910192915050565b73ffffffffffffffffffffffffffffffffffffffff91909116815260200190565b73ffffffffffffffffffffffffffffffffffffffff9384168152919092166020820152604081019190915260600190565b73ffffffffffffffffffffffffffffffffffffffff929092168252602082015260400190565b901515815260200190565b90815260200190565b6000602082528251806020840152611587816040850160208701611c32565b601f017fffffffffffffffffffffffffffffffffffffffffffffffffffffffffffffffe0169190910160400192915050565b6020808252602f908201527f416363657373436f6e74726f6c3a2073656e646572206d75737420626520616e60408201527f2061646d696e20746f206772616e740000000000000000000000000000000000606082015260800190565b6020808252604b908201527f5265646973747269627574696f6e506f6f6c3a3a6e6f7469667952657761726460408201527f416d6f756e743a20496e737566666963656e742062616c616e636520666f722060608201527f7265776172642072617465000000000000000000000000000000000000000000608082015260a00190565b60208082526029908201527f5265646973747269627574696f6e506f6f6c3a3a7374616b653a2043616e6e6f60408201527f74207374616b6520300000000000000000000000000000000000000000000000606082015260800190565b60208082526058908201527f526577617264446973747269627574696f6e526563697069656e743a3a73657460408201527f526577617264446973747269627574696f6e3a206d757374206861766520646960608201527f73747269627574696f6e2061737369676e657220726f6c650000000000000000608082015260a00190565b60208082526026908201527f416464726573733a20696e73756666696369656e742062616c616e636520666f60408201527f722063616c6c0000000000000000000000000000000000000000000000000000606082015260800190565b60208082526041908201527f5265646973747269627574696f6e506f6f6c3a3a7265636f766572455243323060408201527f3a2043616e6e6f74207265636f766572207468652072657761726420746f6b6560608201527f6e00000000000000000000000000000000000000000000000000000000000000608082015260a00190565b60208082526030908201527f416363657373436f6e74726f6c3a2073656e646572206d75737420626520616e60408201527f2061646d696e20746f207265766f6b6500000000000000000000000000000000606082015260800190565b6020808252602f908201527f5265646973747269627574696f6e506f6f6c3a3a77697468647261773a20436160408201527f6e6e6f7420776974686472617720300000000000000000000000000000000000606082015260800190565b60208082526054908201527f5265646973747269627574696f6e506f6f6c3a3a7265636f766572455243323060408201527f3a20596f75206d75737420706f737365737320746865207265636f766572207260608201527f6f6c6520746f207265636f766572206572633230000000000000000000000000608082015260a00190565b6020808252605e908201527f5265776172644469737269627574696f6e526563697069656e743a3a6f6e6c7960408201527f526577617264446973747269627574696f6e3a2043616c6c6572206973206e6f60608201527f742052657761726473446973747269627574696f6e20636f6e74726163740000608082015260a00190565b6020808252601d908201527f416464726573733a2063616c6c20746f206e6f6e2d636f6e7472616374000000604082015260600190565b6020808252602a908201527f5361666545524332303a204552433230206f7065726174696f6e20646964206e60408201527f6f74207375636365656400000000000000000000000000000000000000000000606082015260800190565b60208082526042908201527f5265646973747269627574696f6e506f6f6c3a3a7265636f766572455243323060408201527f3a2043616e6e6f74207265636f76657220746865207374616b696e6720746f6b60608201527f656e000000000000000000000000000000000000000000000000000000000000608082015260a00190565b6020808252602f908201527f416363657373436f6e74726f6c3a2063616e206f6e6c792072656e6f756e636560408201527f20726f6c657320666f722073656c660000000000000000000000000000000000606082015260800190565b60008219821115611ba057611ba0611c5e565b500190565b600082611bd9577f4e487b710000000000000000000000000000000000000000000000000000000081526012600452602481fd5b500490565b6000817fffffffffffffffffffffffffffffffffffffffffffffffffffffffffffffffff0483118215151615611c1657611c16611c5e565b500290565b600082821015611c2d57611c2d611c5e565b500390565b60005b83811015611c4d578181015183820152602001611c35565b838111156111d95750506000910152565b7f4e487b7100000000000000000000000000000000000000000000000000000000600052601160045260246000fdfea2646970667358221220cde68cebc6bcf5826a03b689bdded8f0e33e12ee0b3b106709c9baf6aca9ebec64736f6c63430008010033",
  "devdoc": {
    "kind": "dev",
    "methods": {
      "constructor": {
        "params": {
          "_admin": "The default role controller for ",
          "_rewardDistribution": "The reward distributor (can change reward rate)",
          "_rewardToken": "The reward token to distribute",
          "_stakingToken": "The staking token used to qualify for rewards"
        }
      },
      "getRoleAdmin(bytes32)": {
        "details": "Returns the admin role that controls `role`. See {grantRole} and {revokeRole}. To change a role's admin, use {_setRoleAdmin}."
      },
      "grantRole(bytes32,address)": {
        "details": "Grants `role` to `account`. If `account` had not been already granted `role`, emits a {RoleGranted} event. Requirements: - the caller must have ``role``'s admin role."
      },
      "hasRole(bytes32,address)": {
        "details": "Returns `true` if `account` has been granted `role`."
      },
      "notifyRewardAmount(uint256)": {
        "params": {
          "reward": "number of tokens to be distributed over the duration."
        }
      },
      "recoverERC20(address,uint256)": {
        "details": "Sourced from synthetix/contracts/StakingRewards.sol"
      },
      "renounceRole(bytes32,address)": {
        "details": "Revokes `role` from the calling account. Roles are often managed via {grantRole} and {revokeRole}: this function's purpose is to provide a mechanism for accounts to lose their privileges if they are compromised (such as when a trusted device is misplaced). If the calling account had been granted `role`, emits a {RoleRevoked} event. Requirements: - the caller must be `account`."
      },
      "revokeRole(bytes32,address)": {
        "details": "Revokes `role` from `account`. If `account` had been granted `role`, emits a {RoleRevoked} event. Requirements: - the caller must have ``role``'s admin role."
      },
      "supportsInterface(bytes4)": {
        "details": "See {IERC165-supportsInterface}."
      }
    },
    "title": "BoughtThe.top Redistribution Pool",
    "version": 1
  },
  "userdoc": {
    "kind": "user",
    "methods": {
      "constructor": {
        "notice": "Construct a new RedistributionPool"
      },
      "notifyRewardAmount(uint256)": {
        "notice": "Should be called after the amount of reward tokens has been sent to the contract. Reward should be divisible by duration."
      },
      "recoverERC20(address,uint256)": {
        "notice": "Provide accidental token retrieval. "
      }
    },
    "notice": "This contract is used to reward `rewardToken` when `stakeToken` is staked.",
    "version": 1
  },
  "storageLayout": {
    "storage": [
      {
        "astId": 4962,
        "contract": "contracts/RedistributionPool.sol:RedistributionPool",
        "label": "_roles",
        "offset": 0,
        "slot": "0",
        "type": "t_mapping(t_bytes32,t_struct(RoleData)4957_storage)"
      },
      {
        "astId": 4113,
        "contract": "contracts/RedistributionPool.sol:RedistributionPool",
        "label": "rewardDistribution",
        "offset": 0,
        "slot": "1",
        "type": "t_address"
      },
      {
        "astId": 3531,
        "contract": "contracts/RedistributionPool.sol:RedistributionPool",
        "label": "rewardToken",
        "offset": 0,
        "slot": "2",
        "type": "t_contract(IERC20)1804"
      },
      {
        "astId": 3534,
        "contract": "contracts/RedistributionPool.sol:RedistributionPool",
        "label": "stakeToken",
        "offset": 0,
        "slot": "3",
        "type": "t_contract(IERC20)1804"
      },
      {
        "astId": 3537,
        "contract": "contracts/RedistributionPool.sol:RedistributionPool",
        "label": "periodFinish",
        "offset": 0,
        "slot": "4",
        "type": "t_uint256"
      },
      {
        "astId": 3540,
        "contract": "contracts/RedistributionPool.sol:RedistributionPool",
        "label": "rewardRate",
        "offset": 0,
        "slot": "5",
        "type": "t_uint256"
      },
      {
        "astId": 3542,
        "contract": "contracts/RedistributionPool.sol:RedistributionPool",
        "label": "lastUpdateTime",
        "offset": 0,
        "slot": "6",
        "type": "t_uint256"
      },
      {
        "astId": 3544,
        "contract": "contracts/RedistributionPool.sol:RedistributionPool",
        "label": "rewardPerTokenStored",
        "offset": 0,
        "slot": "7",
        "type": "t_uint256"
      },
      {
        "astId": 3548,
        "contract": "contracts/RedistributionPool.sol:RedistributionPool",
        "label": "userRewardPerTokenPaid",
        "offset": 0,
        "slot": "8",
        "type": "t_mapping(t_address,t_uint256)"
      },
      {
        "astId": 3552,
        "contract": "contracts/RedistributionPool.sol:RedistributionPool",
        "label": "rewards",
        "offset": 0,
        "slot": "9",
        "type": "t_mapping(t_address,t_uint256)"
      },
      {
        "astId": 3554,
        "contract": "contracts/RedistributionPool.sol:RedistributionPool",
        "label": "_totalSupply",
        "offset": 0,
        "slot": "10",
        "type": "t_uint256"
      },
      {
        "astId": 3558,
        "contract": "contracts/RedistributionPool.sol:RedistributionPool",
        "label": "_balances",
        "offset": 0,
        "slot": "11",
        "type": "t_mapping(t_address,t_uint256)"
      }
    ],
    "types": {
      "t_address": {
        "encoding": "inplace",
        "label": "address",
        "numberOfBytes": "20"
      },
      "t_bool": {
        "encoding": "inplace",
        "label": "bool",
        "numberOfBytes": "1"
      },
      "t_bytes32": {
        "encoding": "inplace",
        "label": "bytes32",
        "numberOfBytes": "32"
      },
      "t_contract(IERC20)1804": {
        "encoding": "inplace",
        "label": "contract IERC20",
        "numberOfBytes": "20"
      },
      "t_mapping(t_address,t_bool)": {
        "encoding": "mapping",
        "key": "t_address",
        "label": "mapping(address => bool)",
        "numberOfBytes": "32",
        "value": "t_bool"
      },
      "t_mapping(t_address,t_uint256)": {
        "encoding": "mapping",
        "key": "t_address",
        "label": "mapping(address => uint256)",
        "numberOfBytes": "32",
        "value": "t_uint256"
      },
      "t_mapping(t_bytes32,t_struct(RoleData)4957_storage)": {
        "encoding": "mapping",
        "key": "t_bytes32",
        "label": "mapping(bytes32 => struct AccessControl.RoleData)",
        "numberOfBytes": "32",
        "value": "t_struct(RoleData)4957_storage"
      },
      "t_struct(RoleData)4957_storage": {
        "encoding": "inplace",
        "label": "struct AccessControl.RoleData",
        "members": [
          {
            "astId": 4954,
            "contract": "contracts/RedistributionPool.sol:RedistributionPool",
            "label": "members",
            "offset": 0,
            "slot": "0",
            "type": "t_mapping(t_address,t_bool)"
          },
          {
            "astId": 4956,
            "contract": "contracts/RedistributionPool.sol:RedistributionPool",
            "label": "adminRole",
            "offset": 0,
            "slot": "1",
            "type": "t_bytes32"
          }
        ],
        "numberOfBytes": "64"
      },
      "t_uint256": {
        "encoding": "inplace",
        "label": "uint256",
        "numberOfBytes": "32"
      }
    }
  }
}