{
  "address": "0x7574a85Ec062d26092A72441Dbc88269d1c70d90",
  "abi": [
    {
      "inputs": [],
      "stateMutability": "nonpayable",
      "type": "constructor"
    },
    {
      "anonymous": false,
      "inputs": [
        {
          "indexed": true,
          "internalType": "address",
          "name": "owner",
          "type": "address"
        },
        {
          "indexed": true,
          "internalType": "address",
          "name": "approved",
          "type": "address"
        },
        {
          "indexed": true,
          "internalType": "uint256",
          "name": "tokenId",
          "type": "uint256"
        }
      ],
      "name": "Approval",
      "type": "event"
    },
    {
      "anonymous": false,
      "inputs": [
        {
          "indexed": true,
          "internalType": "address",
          "name": "owner",
          "type": "address"
        },
        {
          "indexed": true,
          "internalType": "address",
          "name": "operator",
          "type": "address"
        },
        {
          "indexed": false,
          "internalType": "bool",
          "name": "approved",
          "type": "bool"
        }
      ],
      "name": "ApprovalForAll",
      "type": "event"
    },
    {
      "anonymous": false,
      "inputs": [
        {
          "indexed": false,
          "internalType": "string",
          "name": "uri",
          "type": "string"
        }
      ],
      "name": "BaseTokenURIChanged",
      "type": "event"
    },
    {
      "anonymous": false,
      "inputs": [
        {
          "indexed": true,
          "internalType": "bytes32",
          "name": "role",
          "type": "bytes32"
        },
        {
          "indexed": true,
          "internalType": "bytes32",
          "name": "previousAdminRole",
          "type": "bytes32"
        },
        {
          "indexed": true,
          "internalType": "bytes32",
          "name": "newAdminRole",
          "type": "bytes32"
        }
      ],
      "name": "RoleAdminChanged",
      "type": "event"
    },
    {
      "anonymous": false,
      "inputs": [
        {
          "indexed": true,
          "internalType": "bytes32",
          "name": "role",
          "type": "bytes32"
        },
        {
          "indexed": true,
          "internalType": "address",
          "name": "account",
          "type": "address"
        },
        {
          "indexed": true,
          "internalType": "address",
          "name": "sender",
          "type": "address"
        }
      ],
      "name": "RoleGranted",
      "type": "event"
    },
    {
      "anonymous": false,
      "inputs": [
        {
          "indexed": true,
          "internalType": "bytes32",
          "name": "role",
          "type": "bytes32"
        },
        {
          "indexed": true,
          "internalType": "address",
          "name": "account",
          "type": "address"
        },
        {
          "indexed": true,
          "internalType": "address",
          "name": "sender",
          "type": "address"
        }
      ],
      "name": "RoleRevoked",
      "type": "event"
    },
    {
      "anonymous": false,
      "inputs": [
        {
          "indexed": true,
          "internalType": "address",
          "name": "from",
          "type": "address"
        },
        {
          "indexed": true,
          "internalType": "address",
          "name": "to",
          "type": "address"
        },
        {
          "indexed": true,
          "internalType": "uint256",
          "name": "tokenId",
          "type": "uint256"
        }
      ],
      "name": "Transfer",
      "type": "event"
    },
    {
      "inputs": [],
      "name": "DEFAULT_ADMIN_ROLE",
      "outputs": [
        {
          "internalType": "bytes32",
          "name": "",
          "type": "bytes32"
        }
      ],
      "stateMutability": "view",
      "type": "function"
    },
    {
      "inputs": [],
      "name": "PREDICATE_ROLE",
      "outputs": [
        {
          "internalType": "bytes32",
          "name": "",
          "type": "bytes32"
        }
      ],
      "stateMutability": "view",
      "type": "function"
    },
    {
      "inputs": [
        {
          "internalType": "address",
          "name": "to",
          "type": "address"
        },
        {
          "internalType": "uint256",
          "name": "tokenId",
          "type": "uint256"
        }
      ],
      "name": "approve",
      "outputs": [],
      "stateMutability": "nonpayable",
      "type": "function"
    },
    {
      "inputs": [
        {
          "internalType": "address",
          "name": "owner",
          "type": "address"
        }
      ],
      "name": "balanceOf",
      "outputs": [
        {
          "internalType": "uint256",
          "name": "",
          "type": "uint256"
        }
      ],
      "stateMutability": "view",
      "type": "function"
    },
    {
      "inputs": [],
      "name": "baseTokenURI",
      "outputs": [
        {
          "internalType": "string",
          "name": "",
          "type": "string"
        }
      ],
      "stateMutability": "view",
      "type": "function"
    },
    {
      "inputs": [
        {
          "internalType": "uint256",
          "name": "tokenId",
          "type": "uint256"
        }
      ],
      "name": "exists",
      "outputs": [
        {
          "internalType": "bool",
          "name": "",
          "type": "bool"
        }
      ],
      "stateMutability": "view",
      "type": "function"
    },
    {
      "inputs": [
        {
          "internalType": "uint256",
          "name": "tokenId",
          "type": "uint256"
        }
      ],
      "name": "getApproved",
      "outputs": [
        {
          "internalType": "address",
          "name": "",
          "type": "address"
        }
      ],
      "stateMutability": "view",
      "type": "function"
    },
    {
      "inputs": [
        {
          "internalType": "bytes32",
          "name": "role",
          "type": "bytes32"
        }
      ],
      "name": "getRoleAdmin",
      "outputs": [
        {
          "internalType": "bytes32",
          "name": "",
          "type": "bytes32"
        }
      ],
      "stateMutability": "view",
      "type": "function"
    },
    {
      "inputs": [
        {
          "internalType": "bytes32",
          "name": "role",
          "type": "bytes32"
        },
        {
          "internalType": "address",
          "name": "account",
          "type": "address"
        }
      ],
      "name": "grantRole",
      "outputs": [],
      "stateMutability": "nonpayable",
      "type": "function"
    },
    {
      "inputs": [
        {
          "internalType": "bytes32",
          "name": "role",
          "type": "bytes32"
        },
        {
          "internalType": "address",
          "name": "account",
          "type": "address"
        }
      ],
      "name": "hasRole",
      "outputs": [
        {
          "internalType": "bool",
          "name": "",
          "type": "bool"
        }
      ],
      "stateMutability": "view",
      "type": "function"
    },
    {
      "inputs": [
        {
          "internalType": "address",
          "name": "owner",
          "type": "address"
        },
        {
          "internalType": "address",
          "name": "operator",
          "type": "address"
        }
      ],
      "name": "isApprovedForAll",
      "outputs": [
        {
          "internalType": "bool",
          "name": "",
          "type": "bool"
        }
      ],
      "stateMutability": "view",
      "type": "function"
    },
    {
      "inputs": [
        {
          "internalType": "address",
          "name": "user",
          "type": "address"
        },
        {
          "internalType": "uint256",
          "name": "tokenId",
          "type": "uint256"
        }
      ],
      "name": "mint",
      "outputs": [],
      "stateMutability": "nonpayable",
      "type": "function"
    },
    {
      "inputs": [
        {
          "internalType": "address",
          "name": "user",
          "type": "address"
        },
        {
          "internalType": "uint256",
          "name": "tokenId",
          "type": "uint256"
        },
        {
          "internalType": "bytes",
          "name": "",
          "type": "bytes"
        }
      ],
      "name": "mint",
      "outputs": [],
      "stateMutability": "nonpayable",
      "type": "function"
    },
    {
      "inputs": [],
      "name": "name",
      "outputs": [
        {
          "internalType": "string",
          "name": "",
          "type": "string"
        }
      ],
      "stateMutability": "view",
      "type": "function"
    },
    {
      "inputs": [
        {
          "internalType": "uint256",
          "name": "tokenId",
          "type": "uint256"
        }
      ],
      "name": "ownerOf",
      "outputs": [
        {
          "internalType": "address",
          "name": "",
          "type": "address"
        }
      ],
      "stateMutability": "view",
      "type": "function"
    },
    {
      "inputs": [
        {
          "internalType": "bytes32",
          "name": "role",
          "type": "bytes32"
        },
        {
          "internalType": "address",
          "name": "account",
          "type": "address"
        }
      ],
      "name": "renounceRole",
      "outputs": [],
      "stateMutability": "nonpayable",
      "type": "function"
    },
    {
      "inputs": [
        {
          "internalType": "address",
          "name": "_token",
          "type": "address"
        }
      ],
      "name": "rescue",
      "outputs": [],
      "stateMutability": "nonpayable",
      "type": "function"
    },
    {
      "inputs": [
        {
          "internalType": "bytes32",
          "name": "role",
          "type": "bytes32"
        },
        {
          "internalType": "address",
          "name": "account",
          "type": "address"
        }
      ],
      "name": "revokeRole",
      "outputs": [],
      "stateMutability": "nonpayable",
      "type": "function"
    },
    {
      "inputs": [
        {
          "internalType": "address",
          "name": "from",
          "type": "address"
        },
        {
          "internalType": "address",
          "name": "to",
          "type": "address"
        },
        {
          "internalType": "uint256",
          "name": "tokenId",
          "type": "uint256"
        }
      ],
      "name": "safeTransferFrom",
      "outputs": [],
      "stateMutability": "nonpayable",
      "type": "function"
    },
    {
      "inputs": [
        {
          "internalType": "address",
          "name": "from",
          "type": "address"
        },
        {
          "internalType": "address",
          "name": "to",
          "type": "address"
        },
        {
          "internalType": "uint256",
          "name": "tokenId",
          "type": "uint256"
        },
        {
          "internalType": "bytes",
          "name": "_data",
          "type": "bytes"
        }
      ],
      "name": "safeTransferFrom",
      "outputs": [],
      "stateMutability": "nonpayable",
      "type": "function"
    },
    {
      "inputs": [
        {
          "internalType": "address",
          "name": "operator",
          "type": "address"
        },
        {
          "internalType": "bool",
          "name": "approved",
          "type": "bool"
        }
      ],
      "name": "setApprovalForAll",
      "outputs": [],
      "stateMutability": "nonpayable",
      "type": "function"
    },
    {
      "inputs": [
        {
          "internalType": "string",
          "name": "uri",
          "type": "string"
        }
      ],
      "name": "setBaseTokenURI",
      "outputs": [],
      "stateMutability": "nonpayable",
      "type": "function"
    },
    {
      "inputs": [
        {
          "internalType": "bytes4",
          "name": "interfaceId",
          "type": "bytes4"
        }
      ],
      "name": "supportsInterface",
      "outputs": [
        {
          "internalType": "bool",
          "name": "",
          "type": "bool"
        }
      ],
      "stateMutability": "view",
      "type": "function"
    },
    {
      "inputs": [],
      "name": "symbol",
      "outputs": [
        {
          "internalType": "string",
          "name": "",
          "type": "string"
        }
      ],
      "stateMutability": "view",
      "type": "function"
    },
    {
      "inputs": [
        {
          "internalType": "uint256",
          "name": "index",
          "type": "uint256"
        }
      ],
      "name": "tokenByIndex",
      "outputs": [
        {
          "internalType": "uint256",
          "name": "",
          "type": "uint256"
        }
      ],
      "stateMutability": "view",
      "type": "function"
    },
    {
      "inputs": [
        {
          "internalType": "address",
          "name": "owner",
          "type": "address"
        },
        {
          "internalType": "uint256",
          "name": "index",
          "type": "uint256"
        }
      ],
      "name": "tokenOfOwnerByIndex",
      "outputs": [
        {
          "internalType": "uint256",
          "name": "",
          "type": "uint256"
        }
      ],
      "stateMutability": "view",
      "type": "function"
    },
    {
      "inputs": [
        {
          "internalType": "uint256",
          "name": "tokenId",
          "type": "uint256"
        }
      ],
      "name": "tokenURI",
      "outputs": [
        {
          "internalType": "string",
          "name": "",
          "type": "string"
        }
      ],
      "stateMutability": "view",
      "type": "function"
    },
    {
      "inputs": [],
      "name": "totalSupply",
      "outputs": [
        {
          "internalType": "uint256",
          "name": "",
          "type": "uint256"
        }
      ],
      "stateMutability": "view",
      "type": "function"
    },
    {
      "inputs": [
        {
          "internalType": "address",
          "name": "from",
          "type": "address"
        },
        {
          "internalType": "address",
          "name": "to",
          "type": "address"
        },
        {
          "internalType": "uint256",
          "name": "tokenId",
          "type": "uint256"
        }
      ],
      "name": "transferFrom",
      "outputs": [],
      "stateMutability": "nonpayable",
      "type": "function"
    }
  ],
  "transactionHash": "0x5bed8f74ded0a6c0832af43122b2f62a1a6d493c7a7c52bdbf71ac549caf73b4",
  "args": [],
  "solcInputHash": "26f6a656a41aefddab40d92ccdd59abd",
  "bytecode": "0x60806040523480156200001157600080fd5b506040805180820182526011815270109bdd59da1d151a194b9d1bdc08139195607a1b60208083019182528351808501909452600384526210951560ea1b908401528151919291620000669160019162000164565b5080516200007c90600290602084019062000164565b5062000097915060009050620000916200009d565b620000a1565b62000247565b3390565b620000ad8282620000b1565b5050565b620000bd82826200013b565b620000ad576000828152602081815260408083206001600160a01b03851684529091529020805460ff19166001179055620000f76200009d565b6001600160a01b0316816001600160a01b0316837f2f8788117e7eff1d82e926ec794901d17c78024a50270940304540a733656f0d60405160405180910390a45050565b6000918252602082815260408084206001600160a01b0393909316845291905290205460ff1690565b82805462000172906200020a565b90600052602060002090601f016020900481019282620001965760008555620001e1565b82601f10620001b157805160ff1916838001178555620001e1565b82800160010185558215620001e1579182015b82811115620001e1578251825591602001919060010190620001c4565b50620001ef929150620001f3565b5090565b5b80821115620001ef5760008155600101620001f4565b6002810460018216806200021f57607f821691505b602082108114156200024157634e487b7160e01b600052602260045260246000fd5b50919050565b61286f80620002576000396000f3fe608060405234801561001057600080fd5b50600436106101cf5760003560e01c80634f6ccce711610104578063a217fddf116100a2578063d547741f11610071578063d547741f146103c2578063d547cfb7146103d5578063e72db5fd146103dd578063e985e9c5146103e5576101cf565b8063a217fddf14610381578063a22cb46514610389578063b88d4fde1461039c578063c87b56dd146103af576101cf565b8063839006f2116100de578063839006f21461034057806391d148541461035357806394d008ef1461036657806395d89b4114610379576101cf565b80634f6ccce7146103075780636352211e1461031a57806370a082311461032d576101cf565b80632f2ff15d1161017157806336568abe1161014b57806336568abe146102bb57806340c10f19146102ce57806342842e0e146102e15780634f558e79146102f4576101cf565b80632f2ff15d146102825780632f745c591461029557806330176e13146102a8576101cf565b8063095ea7b3116101ad578063095ea7b31461023257806318160ddd1461024757806323b872dd1461025c578063248a9ca31461026f576101cf565b806301ffc9a7146101d457806306fdde03146101fd578063081812fc14610212575b600080fd5b6101e76101e2366004611ced565b6103f8565b6040516101f49190611e5f565b60405180910390f35b61020561040b565b6040516101f49190611ec0565b610225610220366004611cb3565b61049d565b6040516101f49190611df6565b610245610240366004611c16565b6104e9565b005b61024f610581565b6040516101f49190611e6a565b61024561026a366004611ab2565b610587565b61024f61027d366004611cb3565b6105bf565b610245610290366004611ccb565b6105d4565b61024f6102a3366004611c16565b610612565b6102456102b6366004611d25565b610664565b6102456102c9366004611ccb565b6106d7565b6102456102dc366004611c16565b610719565b6102456102ef366004611ab2565b61076b565b6101e7610302366004611cb3565b610786565b61024f610315366004611cb3565b610791565b610225610328366004611cb3565b610805565b61024f61033b366004611a66565b61083a565b61024561034e366004611a66565b61087e565b6101e7610361366004611ccb565b6109c3565b610245610374366004611c3f565b6109ec565b610205610a44565b61024f610a53565b610245610397366004611be0565b610a58565b6102456103aa366004611aed565b610b44565b6102056103bd366004611cb3565b610b7d565b6102456103d0366004611ccb565b610c00565b610205610c28565b61024f610cb6565b6101e76103f3366004611a80565b610cda565b600061040382610d08565b90505b919050565b60606001805461041a906126cc565b80601f0160208091040260200160405190810160405280929190818152602001828054610446906126cc565b80156104935780601f1061046857610100808354040283529160200191610493565b820191906000526020600020905b81548152906001019060200180831161047657829003601f168201915b5050505050905090565b60006104a882610d5e565b6104cd5760405162461bcd60e51b81526004016104c490612318565b60405180910390fd5b506000908152600560205260409020546001600160a01b031690565b60006104f482610805565b9050806001600160a01b0316836001600160a01b031614156105285760405162461bcd60e51b81526004016104c49061248c565b806001600160a01b031661053a610d7b565b6001600160a01b031614806105565750610556816103f3610d7b565b6105725760405162461bcd60e51b81526004016104c49061216f565b61057c8383610d7f565b505050565b60095490565b610598610592610d7b565b82610e05565b6105b45760405162461bcd60e51b81526004016104c490612546565b61057c838383610e8a565b60009081526020819052604090206001015490565b6105e86105e0836105bf565b610361610d7b565b6106045760405162461bcd60e51b81526004016104c490611ed3565b61060e8282610fcf565b5050565b600061061d8361083a565b821061063b5760405162461bcd60e51b81526004016104c490611f30565b506001600160a01b03919091166000908152600760209081526040808320938352929052205490565b6106716000610361610d7b565b61068d5760405162461bcd60e51b81526004016104c4906124e9565b610699600b8383611951565b507f228a3ac0675af69daeaaa5b8d369fe2faae665e7f340f0b78ccbb84e17b4f69482826040516106cb929190611e73565b60405180910390a15050565b6106df610d7b565b6001600160a01b0316816001600160a01b03161461070f5760405162461bcd60e51b81526004016104c490612600565b61060e8282611072565b6107457f12ff340d0cd9c652c747ca35727e68c547d0f0bfa7758d2e77f75acef481b4f2610361610d7b565b6107615760405162461bcd60e51b81526004016104c4906123d2565b61060e8282611113565b61057c83838360405180602001604052806000815250610b44565b600061040382610d5e565b600061079b610581565b82106107b95760405162461bcd60e51b81526004016104c4906125a3565b600982815481106107f3577f4e487b7100000000000000000000000000000000000000000000000000000000600052603260045260246000fd5b90600052602060002001549050919050565b6000818152600360205260408120546001600160a01b0316806104035760405162461bcd60e51b81526004016104c490612229565b60006001600160a01b0382166108625760405162461bcd60e51b81526004016104c4906121cc565b506001600160a01b031660009081526004602052604090205490565b61088b6000610361610d7b565b6108a75760405162461bcd60e51b81526004016104c4906122bb565b806001600160a01b03811663a9059cbb6108bf610d7b565b6040517f70a082310000000000000000000000000000000000000000000000000000000081526001600160a01b038516906370a0823190610904903090600401611df6565b60206040518083038186803b15801561091c57600080fd5b505afa158015610930573d6000803e3d6000fd5b505050506040513d601f19601f820116820180604052508101906109549190611d65565b6040518363ffffffff1660e01b8152600401610971929190611e46565b602060405180830381600087803b15801561098b57600080fd5b505af115801561099f573d6000803e3d6000fd5b505050506040513d601f19601f8201168201806040525081019061057c9190611c97565b6000918252602082815260408084206001600160a01b0393909316845291905290205460ff1690565b610a187f12ff340d0cd9c652c747ca35727e68c547d0f0bfa7758d2e77f75acef481b4f2610361610d7b565b610a345760405162461bcd60e51b81526004016104c4906123d2565b610a3e8484611113565b50505050565b60606002805461041a906126cc565b600081565b610a60610d7b565b6001600160a01b0316826001600160a01b03161415610a915760405162461bcd60e51b81526004016104c49061207e565b8060066000610a9e610d7b565b6001600160a01b0390811682526020808301939093526040918201600090812091871680825291909352912080547fffffffffffffffffffffffffffffffffffffffffffffffffffffffffffffff001692151592909217909155610b00610d7b565b6001600160a01b03167f17307eab39ab6107e8899845ad3d59bd9653f200f220920489ca2b5937696c3183604051610b389190611e5f565b60405180910390a35050565b610b55610b4f610d7b565b83610e05565b610b715760405162461bcd60e51b81526004016104c490612546565b610a3e8484848461120a565b6060610b8882610d5e565b610ba45760405162461bcd60e51b81526004016104c49061242f565b6000610bae61123d565b90506000815111610bce5760405180602001604052806000815250610bf9565b80610bd88461124c565b604051602001610be9929190611dc7565b6040516020818303038152906040525b9392505050565b610c0c6105e0836105bf565b61070f5760405162461bcd60e51b81526004016104c490612112565b600b8054610c35906126cc565b80601f0160208091040260200160405190810160405280929190818152602001828054610c61906126cc565b8015610cae5780601f10610c8357610100808354040283529160200191610cae565b820191906000526020600020905b815481529060010190602001808311610c9157829003601f168201915b505050505081565b7f12ff340d0cd9c652c747ca35727e68c547d0f0bfa7758d2e77f75acef481b4f281565b6001600160a01b03918216600090815260066020908152604080832093909416825291909152205460ff1690565b60007fffffffff0000000000000000000000000000000000000000000000000000000082167f780e9d630000000000000000000000000000000000000000000000000000000014806104035750610403826113cd565b6000908152600360205260409020546001600160a01b0316151590565b3390565b600081815260056020526040902080547fffffffffffffffffffffffff0000000000000000000000000000000000000000166001600160a01b0384169081179091558190610dcc82610805565b6001600160a01b03167f8c5be1e5ebec7d5bd14f71427d1e84f3dd0314c0f7b2291e5b200ac8c7c3b92560405160405180910390a45050565b6000610e1082610d5e565b610e2c5760405162461bcd60e51b81526004016104c4906120b5565b6000610e3783610805565b9050806001600160a01b0316846001600160a01b03161480610e725750836001600160a01b0316610e678461049d565b6001600160a01b0316145b80610e825750610e828185610cda565b949350505050565b826001600160a01b0316610e9d82610805565b6001600160a01b031614610ec35760405162461bcd60e51b81526004016104c490612375565b6001600160a01b038216610ee95760405162461bcd60e51b81526004016104c490612021565b610ef483838361146f565b610eff600082610d7f565b6001600160a01b0383166000908152600460205260408120805460019290610f28908490612689565b90915550506001600160a01b0382166000908152600460205260408120805460019290610f5690849061265d565b909155505060008181526003602052604080822080547fffffffffffffffffffffffff0000000000000000000000000000000000000000166001600160a01b0386811691821790925591518493918716917fddf252ad1be2c89b69c2b068fc378daa952ba7f163c4a11628f55a4df523b3ef91a4505050565b610fd982826109c3565b61060e576000828152602081815260408083206001600160a01b0385168452909152902080547fffffffffffffffffffffffffffffffffffffffffffffffffffffffffffffff0016600117905561102e610d7b565b6001600160a01b0316816001600160a01b0316837f2f8788117e7eff1d82e926ec794901d17c78024a50270940304540a733656f0d60405160405180910390a45050565b61107c82826109c3565b1561060e576000828152602081815260408083206001600160a01b0385168452909152902080547fffffffffffffffffffffffffffffffffffffffffffffffffffffffffffffff001690556110cf610d7b565b6001600160a01b0316816001600160a01b0316837ff6391f5c32d9c69d2a47ea670b442974b53935d1edc7fd64eb21e047a839171b60405160405180910390a45050565b6001600160a01b0382166111395760405162461bcd60e51b81526004016104c490612286565b61114281610d5e565b1561115f5760405162461bcd60e51b81526004016104c490611fea565b61116b6000838361146f565b6001600160a01b038216600090815260046020526040812080546001929061119490849061265d565b909155505060008181526003602052604080822080547fffffffffffffffffffffffff0000000000000000000000000000000000000000166001600160a01b03861690811790915590518392907fddf252ad1be2c89b69c2b068fc378daa952ba7f163c4a11628f55a4df523b3ef908290a45050565b611215848484610e8a565b611221848484846114f8565b610a3e5760405162461bcd60e51b81526004016104c490611f8d565b6060600b805461041a906126cc565b60608161128d575060408051808201909152600181527f30000000000000000000000000000000000000000000000000000000000000006020820152610406565b8160005b81156112b757806112a181612720565b91506112b09050600a83612675565b9150611291565b60008167ffffffffffffffff8111156112f9577f4e487b7100000000000000000000000000000000000000000000000000000000600052604160045260246000fd5b6040519080825280601f01601f191660200182016040528015611323576020820181803683370190505b5090505b8415610e8257611338600183612689565b9150611345600a86612759565b61135090603061265d565b60f81b81838151811061138c577f4e487b7100000000000000000000000000000000000000000000000000000000600052603260045260246000fd5b60200101907effffffffffffffffffffffffffffffffffffffffffffffffffffffffffffff1916908160001a9053506113c6600a86612675565b9450611327565b60007fffffffff0000000000000000000000000000000000000000000000000000000082167f80ac58cd00000000000000000000000000000000000000000000000000000000148061146057507fffffffff0000000000000000000000000000000000000000000000000000000082167f5b5e139f00000000000000000000000000000000000000000000000000000000145b80610403575061040382611662565b61147a83838361057c565b6001600160a01b03831661149657611491816116b8565b6114b9565b816001600160a01b0316836001600160a01b0316146114b9576114b983826116fc565b6001600160a01b0382166114d5576114d081611799565b61057c565b826001600160a01b0316826001600160a01b03161461057c5761057c82826118bd565b600061150c846001600160a01b0316611901565b1561165757836001600160a01b031663150b7a02611528610d7b565b8786866040518563ffffffff1660e01b815260040161154a9493929190611e0a565b602060405180830381600087803b15801561156457600080fd5b505af19250505080156115b2575060408051601f3d9081017fffffffffffffffffffffffffffffffffffffffffffffffffffffffffffffffe01682019092526115af91810190611d09565b60015b61160c573d8080156115e0576040519150601f19603f3d011682016040523d82523d6000602084013e6115e5565b606091505b5080516116045760405162461bcd60e51b81526004016104c490611f8d565b805181602001fd5b7fffffffff00000000000000000000000000000000000000000000000000000000167f150b7a0200000000000000000000000000000000000000000000000000000000149050610e82565b506001949350505050565b60007fffffffff0000000000000000000000000000000000000000000000000000000082167f7965db0b000000000000000000000000000000000000000000000000000000001480610403575061040382611907565b600980546000838152600a60205260408120829055600182018355919091527f6e1540171b6c0c960b71a7020d9f60077f6af931a8bbf590da0223dacf75c7af0155565b600060016117098461083a565b6117139190612689565b600083815260086020526040902054909150808214611766576001600160a01b03841660009081526007602090815260408083208584528252808320548484528184208190558352600890915290208190555b5060009182526008602090815260408084208490556001600160a01b039094168352600781528383209183525290812055565b6009546000906117ab90600190612689565b6000838152600a6020526040812054600980549394509092849081106117fa577f4e487b7100000000000000000000000000000000000000000000000000000000600052603260045260246000fd5b906000526020600020015490508060098381548110611842577f4e487b7100000000000000000000000000000000000000000000000000000000600052603260045260246000fd5b6000918252602080832090910192909255828152600a909152604080822084905585825281205560098054806118a1577f4e487b7100000000000000000000000000000000000000000000000000000000600052603160045260246000fd5b6001900381819060005260206000200160009055905550505050565b60006118c88361083a565b6001600160a01b039093166000908152600760209081526040808320868452825280832085905593825260089052919091209190915550565b3b151590565b7fffffffff0000000000000000000000000000000000000000000000000000000081167f01ffc9a70000000000000000000000000000000000000000000000000000000014919050565b82805461195d906126cc565b90600052602060002090601f01602090048101928261197f57600085556119e3565b82601f106119b6578280017fffffffffffffffffffffffffffffffffffffffffffffffffffffffffffffff008235161785556119e3565b828001600101855582156119e3579182015b828111156119e35782358255916020019190600101906119c8565b506119ef9291506119f3565b5090565b5b808211156119ef57600081556001016119f4565b80356001600160a01b038116811461040657600080fd5b60008083601f840112611a30578182fd5b50813567ffffffffffffffff811115611a47578182fd5b602083019150836020828501011115611a5f57600080fd5b9250929050565b600060208284031215611a77578081fd5b610bf982611a08565b60008060408385031215611a92578081fd5b611a9b83611a08565b9150611aa960208401611a08565b90509250929050565b600080600060608486031215611ac6578081fd5b611acf84611a08565b9250611add60208501611a08565b9150604084013590509250925092565b60008060008060808587031215611b02578081fd5b611b0b85611a08565b9350611b1960208601611a08565b925060408501359150606085013567ffffffffffffffff80821115611b3c578283fd5b818701915087601f830112611b4f578283fd5b813581811115611b6157611b616127cb565b604051601f82017fffffffffffffffffffffffffffffffffffffffffffffffffffffffffffffffe0908116603f01168101908382118183101715611ba757611ba76127cb565b816040528281528a6020848701011115611bbf578586fd5b82602086016020830137918201602001949094529598949750929550505050565b60008060408385031215611bf2578182fd5b611bfb83611a08565b91506020830135611c0b816127fa565b809150509250929050565b60008060408385031215611c28578182fd5b611c3183611a08565b946020939093013593505050565b60008060008060608587031215611c54578384fd5b611c5d85611a08565b935060208501359250604085013567ffffffffffffffff811115611c7f578283fd5b611c8b87828801611a1f565b95989497509550505050565b600060208284031215611ca8578081fd5b8151610bf9816127fa565b600060208284031215611cc4578081fd5b5035919050565b60008060408385031215611cdd578182fd5b82359150611aa960208401611a08565b600060208284031215611cfe578081fd5b8135610bf98161280b565b600060208284031215611d1a578081fd5b8151610bf98161280b565b60008060208385031215611d37578182fd5b823567ffffffffffffffff811115611d4d578283fd5b611d5985828601611a1f565b90969095509350505050565b600060208284031215611d76578081fd5b5051919050565b60008151808452611d958160208601602086016126a0565b601f017fffffffffffffffffffffffffffffffffffffffffffffffffffffffffffffffe0169290920160200192915050565b60008351611dd98184602088016126a0565b835190830190611ded8183602088016126a0565b01949350505050565b6001600160a01b0391909116815260200190565b60006001600160a01b03808716835280861660208401525083604083015260806060830152611e3c6080830184611d7d565b9695505050505050565b6001600160a01b03929092168252602082015260400190565b901515815260200190565b90815260200190565b60006020825282602083015282846040840137818301604090810191909152601f9092017fffffffffffffffffffffffffffffffffffffffffffffffffffffffffffffffe0160101919050565b600060208252610bf96020830184611d7d565b6020808252602f908201527f416363657373436f6e74726f6c3a2073656e646572206d75737420626520616e60408201527f2061646d696e20746f206772616e740000000000000000000000000000000000606082015260800190565b6020808252602b908201527f455243373231456e756d657261626c653a206f776e657220696e646578206f7560408201527f74206f6620626f756e6473000000000000000000000000000000000000000000606082015260800190565b60208082526032908201527f4552433732313a207472616e7366657220746f206e6f6e20455243373231526560408201527f63656976657220696d706c656d656e7465720000000000000000000000000000606082015260800190565b6020808252601c908201527f4552433732313a20746f6b656e20616c7265616479206d696e74656400000000604082015260600190565b60208082526024908201527f4552433732313a207472616e7366657220746f20746865207a65726f2061646460408201527f7265737300000000000000000000000000000000000000000000000000000000606082015260800190565b60208082526019908201527f4552433732313a20617070726f766520746f2063616c6c657200000000000000604082015260600190565b6020808252602c908201527f4552433732313a206f70657261746f7220717565727920666f72206e6f6e657860408201527f697374656e7420746f6b656e0000000000000000000000000000000000000000606082015260800190565b60208082526030908201527f416363657373436f6e74726f6c3a2073656e646572206d75737420626520616e60408201527f2061646d696e20746f207265766f6b6500000000000000000000000000000000606082015260800190565b60208082526038908201527f4552433732313a20617070726f76652063616c6c6572206973206e6f74206f7760408201527f6e6572206e6f7220617070726f76656420666f7220616c6c0000000000000000606082015260800190565b6020808252602a908201527f4552433732313a2062616c616e636520717565727920666f7220746865207a6560408201527f726f206164647265737300000000000000000000000000000000000000000000606082015260800190565b60208082526029908201527f4552433732313a206f776e657220717565727920666f72206e6f6e657869737460408201527f656e7420746f6b656e0000000000000000000000000000000000000000000000606082015260800190565b6020808252818101527f4552433732313a206d696e7420746f20746865207a65726f2061646472657373604082015260600190565b60208082526028908201527f426f75676874546865546f704e46543a206d757374206861766520776974686460408201527f72617720726f6c65000000000000000000000000000000000000000000000000606082015260800190565b6020808252602c908201527f4552433732313a20617070726f76656420717565727920666f72206e6f6e657860408201527f697374656e7420746f6b656e0000000000000000000000000000000000000000606082015260800190565b60208082526029908201527f4552433732313a207472616e73666572206f6620746f6b656e2074686174206960408201527f73206e6f74206f776e0000000000000000000000000000000000000000000000606082015260800190565b60208082526029908201527f426f75676874546865546f704e46543a206d757374206861766520707265646960408201527f6361746520726f6c650000000000000000000000000000000000000000000000606082015260800190565b6020808252602f908201527f4552433732314d657461646174613a2055524920717565727920666f72206e6f60408201527f6e6578697374656e7420746f6b656e0000000000000000000000000000000000606082015260800190565b60208082526021908201527f4552433732313a20617070726f76616c20746f2063757272656e74206f776e6560408201527f7200000000000000000000000000000000000000000000000000000000000000606082015260800190565b60208082526025908201527f426f75676874546865546f704e46543a206d75737420686176652061646d696e60408201527f20726f6c65000000000000000000000000000000000000000000000000000000606082015260800190565b60208082526031908201527f4552433732313a207472616e736665722063616c6c6572206973206e6f74206f60408201527f776e6572206e6f7220617070726f766564000000000000000000000000000000606082015260800190565b6020808252602c908201527f455243373231456e756d657261626c653a20676c6f62616c20696e646578206f60408201527f7574206f6620626f756e64730000000000000000000000000000000000000000606082015260800190565b6020808252602f908201527f416363657373436f6e74726f6c3a2063616e206f6e6c792072656e6f756e636560408201527f20726f6c657320666f722073656c660000000000000000000000000000000000606082015260800190565b600082198211156126705761267061276d565b500190565b6000826126845761268461279c565b500490565b60008282101561269b5761269b61276d565b500390565b60005b838110156126bb5781810151838201526020016126a3565b83811115610a3e5750506000910152565b6002810460018216806126e057607f821691505b6020821081141561271a577f4e487b7100000000000000000000000000000000000000000000000000000000600052602260045260246000fd5b50919050565b60007fffffffffffffffffffffffffffffffffffffffffffffffffffffffffffffffff8214156127525761275261276d565b5060010190565b6000826127685761276861279c565b500690565b7f4e487b7100000000000000000000000000000000000000000000000000000000600052601160045260246000fd5b7f4e487b7100000000000000000000000000000000000000000000000000000000600052601260045260246000fd5b7f4e487b7100000000000000000000000000000000000000000000000000000000600052604160045260246000fd5b801515811461280857600080fd5b50565b7fffffffff000000000000000000000000000000000000000000000000000000008116811461280857600080fdfea2646970667358221220dd007a7656f64c6941f212a69ee1f5813cc8dc03dce7a8926177180ffe46af9c64736f6c63430008010033",
  "devdoc": {
    "kind": "dev",
    "methods": {
      "approve(address,uint256)": {
        "details": "See {IERC721-approve}."
      },
      "balanceOf(address)": {
        "details": "See {IERC721-balanceOf}."
      },
      "constructor": {
        "details": "Initialize contract, owner will be set to the account that deploys the contract."
      },
      "exists(uint256)": {
        "details": "See {IMintableERC721-exists}."
      },
      "getApproved(uint256)": {
        "details": "See {IERC721-getApproved}."
      },
      "getRoleAdmin(bytes32)": {
        "details": "Returns the admin role that controls `role`. See {grantRole} and {revokeRole}. To change a role's admin, use {_setRoleAdmin}."
      },
      "grantRole(bytes32,address)": {
        "details": "Grants `role` to `account`. If `account` had not been already granted `role`, emits a {RoleGranted} event. Requirements: - the caller must have ``role``'s admin role."
      },
      "hasRole(bytes32,address)": {
        "details": "Returns `true` if `account` has been granted `role`."
      },
      "isApprovedForAll(address,address)": {
        "details": "See {IERC721-isApprovedForAll}."
      },
      "mint(address,uint256)": {
        "details": "See {IMintableERC721-mint}."
      },
      "mint(address,uint256,bytes)": {
        "details": "See {IMintableERC721-mint}. "
      },
      "name()": {
        "details": "See {IERC721Metadata-name}."
      },
      "ownerOf(uint256)": {
        "details": "See {IERC721-ownerOf}."
      },
      "renounceRole(bytes32,address)": {
        "details": "Revokes `role` from the calling account. Roles are often managed via {grantRole} and {revokeRole}: this function's purpose is to provide a mechanism for accounts to lose their privileges if they are compromised (such as when a trusted device is misplaced). If the calling account had been granted `role`, emits a {RoleRevoked} event. Requirements: - the caller must be `account`."
      },
      "rescue(address)": {
        "details": "Rescue any ERC-20 token the contract may hold",
        "params": {
          "_token": "ERC-20 token address Requirements: - the caller must have the `WITHDRAW_ROLE`."
        }
      },
      "revokeRole(bytes32,address)": {
        "details": "Revokes `role` from `account`. If `account` had been granted `role`, emits a {RoleRevoked} event. Requirements: - the caller must have ``role``'s admin role."
      },
      "safeTransferFrom(address,address,uint256)": {
        "details": "See {IERC721-safeTransferFrom}."
      },
      "safeTransferFrom(address,address,uint256,bytes)": {
        "details": "See {IERC721-safeTransferFrom}."
      },
      "setApprovalForAll(address,bool)": {
        "details": "See {IERC721-setApprovalForAll}."
      },
      "setBaseTokenURI(string)": {
        "details": "Set the base URI for all tokens. See {ERC721-tokenURI} Requirements: - the caller must have the `DEFAULT_ADMIN_ROLE`."
      },
      "supportsInterface(bytes4)": {
        "details": "See {IERC165-supportsInterface}."
      },
      "symbol()": {
        "details": "See {IERC721Metadata-symbol}."
      },
      "tokenByIndex(uint256)": {
        "details": "See {IERC721Enumerable-tokenByIndex}."
      },
      "tokenOfOwnerByIndex(address,uint256)": {
        "details": "See {IERC721Enumerable-tokenOfOwnerByIndex}."
      },
      "tokenURI(uint256)": {
        "details": "See {IERC721Metadata-tokenURI}."
      },
      "totalSupply()": {
        "details": "See {IERC721Enumerable-totalSupply}."
      },
      "transferFrom(address,address,uint256)": {
        "details": "See {IERC721-transferFrom}."
      }
    },
    "version": 1
  },
  "userdoc": {
    "events": {
      "BaseTokenURIChanged(string)": {
        "notice": "Emitted when the base token URI changes"
      }
    },
    "kind": "user",
    "methods": {
      "PREDICATE_ROLE()": {
        "notice": "Role identifer for cross-chain minter"
      },
      "baseTokenURI()": {
        "notice": "Base of metdata URI"
      }
    },
    "version": 1
  },
  "storageLayout": {
    "storage": [
      {
        "astId": 5184,
        "contract": "contracts/BoughtTheTopNFTRoot.sol:BoughtTheTopNFTRoot",
        "label": "_roles",
        "offset": 0,
        "slot": "0",
        "type": "t_mapping(t_bytes32,t_struct(RoleData)5179_storage)"
      },
      {
        "astId": 2055,
        "contract": "contracts/BoughtTheTopNFTRoot.sol:BoughtTheTopNFTRoot",
        "label": "_name",
        "offset": 0,
        "slot": "1",
        "type": "t_string_storage"
      },
      {
        "astId": 2057,
        "contract": "contracts/BoughtTheTopNFTRoot.sol:BoughtTheTopNFTRoot",
        "label": "_symbol",
        "offset": 0,
        "slot": "2",
        "type": "t_string_storage"
      },
      {
        "astId": 2061,
        "contract": "contracts/BoughtTheTopNFTRoot.sol:BoughtTheTopNFTRoot",
        "label": "_owners",
        "offset": 0,
        "slot": "3",
        "type": "t_mapping(t_uint256,t_address)"
      },
      {
        "astId": 2065,
        "contract": "contracts/BoughtTheTopNFTRoot.sol:BoughtTheTopNFTRoot",
        "label": "_balances",
        "offset": 0,
        "slot": "4",
        "type": "t_mapping(t_address,t_uint256)"
      },
      {
        "astId": 2069,
        "contract": "contracts/BoughtTheTopNFTRoot.sol:BoughtTheTopNFTRoot",
        "label": "_tokenApprovals",
        "offset": 0,
        "slot": "5",
        "type": "t_mapping(t_uint256,t_address)"
      },
      {
        "astId": 2075,
        "contract": "contracts/BoughtTheTopNFTRoot.sol:BoughtTheTopNFTRoot",
        "label": "_operatorApprovals",
        "offset": 0,
        "slot": "6",
        "type": "t_mapping(t_address,t_mapping(t_address,t_bool))"
      },
      {
        "astId": 2864,
        "contract": "contracts/BoughtTheTopNFTRoot.sol:BoughtTheTopNFTRoot",
        "label": "_ownedTokens",
        "offset": 0,
        "slot": "7",
        "type": "t_mapping(t_address,t_mapping(t_uint256,t_uint256))"
      },
      {
        "astId": 2868,
        "contract": "contracts/BoughtTheTopNFTRoot.sol:BoughtTheTopNFTRoot",
        "label": "_ownedTokensIndex",
        "offset": 0,
        "slot": "8",
        "type": "t_mapping(t_uint256,t_uint256)"
      },
      {
        "astId": 2871,
        "contract": "contracts/BoughtTheTopNFTRoot.sol:BoughtTheTopNFTRoot",
        "label": "_allTokens",
        "offset": 0,
        "slot": "9",
        "type": "t_array(t_uint256)dyn_storage"
      },
      {
        "astId": 2875,
        "contract": "contracts/BoughtTheTopNFTRoot.sol:BoughtTheTopNFTRoot",
        "label": "_allTokensIndex",
        "offset": 0,
        "slot": "10",
        "type": "t_mapping(t_uint256,t_uint256)"
      },
      {
        "astId": 840,
        "contract": "contracts/BoughtTheTopNFTRoot.sol:BoughtTheTopNFTRoot",
        "label": "baseTokenURI",
        "offset": 0,
        "slot": "11",
        "type": "t_string_storage"
      }
    ],
    "types": {
      "t_address": {
        "encoding": "inplace",
        "label": "address",
        "numberOfBytes": "20"
      },
      "t_array(t_uint256)dyn_storage": {
        "base": "t_uint256",
        "encoding": "dynamic_array",
        "label": "uint256[]",
        "numberOfBytes": "32"
      },
      "t_bool": {
        "encoding": "inplace",
        "label": "bool",
        "numberOfBytes": "1"
      },
      "t_bytes32": {
        "encoding": "inplace",
        "label": "bytes32",
        "numberOfBytes": "32"
      },
      "t_mapping(t_address,t_bool)": {
        "encoding": "mapping",
        "key": "t_address",
        "label": "mapping(address => bool)",
        "numberOfBytes": "32",
        "value": "t_bool"
      },
      "t_mapping(t_address,t_mapping(t_address,t_bool))": {
        "encoding": "mapping",
        "key": "t_address",
        "label": "mapping(address => mapping(address => bool))",
        "numberOfBytes": "32",
        "value": "t_mapping(t_address,t_bool)"
      },
      "t_mapping(t_address,t_mapping(t_uint256,t_uint256))": {
        "encoding": "mapping",
        "key": "t_address",
        "label": "mapping(address => mapping(uint256 => uint256))",
        "numberOfBytes": "32",
        "value": "t_mapping(t_uint256,t_uint256)"
      },
      "t_mapping(t_address,t_uint256)": {
        "encoding": "mapping",
        "key": "t_address",
        "label": "mapping(address => uint256)",
        "numberOfBytes": "32",
        "value": "t_uint256"
      },
      "t_mapping(t_bytes32,t_struct(RoleData)5179_storage)": {
        "encoding": "mapping",
        "key": "t_bytes32",
        "label": "mapping(bytes32 => struct AccessControl.RoleData)",
        "numberOfBytes": "32",
        "value": "t_struct(RoleData)5179_storage"
      },
      "t_mapping(t_uint256,t_address)": {
        "encoding": "mapping",
        "key": "t_uint256",
        "label": "mapping(uint256 => address)",
        "numberOfBytes": "32",
        "value": "t_address"
      },
      "t_mapping(t_uint256,t_uint256)": {
        "encoding": "mapping",
        "key": "t_uint256",
        "label": "mapping(uint256 => uint256)",
        "numberOfBytes": "32",
        "value": "t_uint256"
      },
      "t_string_storage": {
        "encoding": "bytes",
        "label": "string",
        "numberOfBytes": "32"
      },
      "t_struct(RoleData)5179_storage": {
        "encoding": "inplace",
        "label": "struct AccessControl.RoleData",
        "members": [
          {
            "astId": 5176,
            "contract": "contracts/BoughtTheTopNFTRoot.sol:BoughtTheTopNFTRoot",
            "label": "members",
            "offset": 0,
            "slot": "0",
            "type": "t_mapping(t_address,t_bool)"
          },
          {
            "astId": 5178,
            "contract": "contracts/BoughtTheTopNFTRoot.sol:BoughtTheTopNFTRoot",
            "label": "adminRole",
            "offset": 0,
            "slot": "1",
            "type": "t_bytes32"
          }
        ],
        "numberOfBytes": "64"
      },
      "t_uint256": {
        "encoding": "inplace",
        "label": "uint256",
        "numberOfBytes": "32"
      }
    }
  }
}